:020000040800F2
:1000000000500020554400089F3D0008A73D00080F
:10001000AF3D0008B73D0008BF3D000800000000EC
:1000200000000000000000000000000071840008D3
:10003000C73D00080000000061860008A98600088E
:100040009D4400089D4400089D4400089D4400080C
:100050009D4400089D4400089D4400089D440008FC
:100060009D4400089D4400089D4400089D440008EC
:100070009D440008D53D00089D4400089D440008AB
:100080009D4400089D4400089D4400089D440008CC
:100090009D4400089D4400089D4400089D440008BC
:1000A0009D4400089D4400089D4400089D440008AC
:1000B000E93D00089D4400089D4400089D44000857
:1000C0009D4400089D4400089D4400089D4400088C
:1000D0009D4400089D4400089D4400089D4400087C
:1000E0009D4400089D4400089D4400080000000055
:1000F0000000000000000000000000000000000000
:0C01000000000000000000005FF808F1A3
:1001100010B5054C237833B9044B13B10448AFF341
:1001200000800123237010BD80000020000000002B
:1001300074AC000808B5034B1BB103490348AFF387
:10014000008008BD000000008400002074AC00089E
:1001500080B400AF00BFBD4680BC704780B582B0A0
:1001600000AF78607B68002B01D1012341E07B6800
:1001700093F83D30DBB2002B06D17B68002283F878
:100180003C20786800F039F87B68022283F83D2033
:100190007B681A687B6804331946104600F0B4FB8C
:1001A0007B68012283F846207B68012283F83E2089
:1001B0007B68012283F83F207B68012283F840207E
:1001C0007B68012283F841207B68012283F842206A
:1001D0007B68012283F843207B68012283F8442056
:1001E0007B68012283F845207B68012283F83D204B
:1001F000002318460837BD4680BD80B483B000AFE9
:10020000786000BF0C37BD4680BC704780B485B0B5
:1002100000AF78607B6893F83D30DBB2012B01D0F2
:1002200001233AE07B68022283F83D207B681B684B
:10023000DA687B681B6842F00102DA607B681B6841
:10024000184A93420ED07B681B68B3F1804F09D0E7
:100250007B681B68144A934204D07B681B68134A6E
:10026000934211D17B681B689B6803F00703FB6016
:10027000FB68062B10D07B681B681A687B681B68BC
:1002800042F001021A6007E07B681B681A687B680D
:100290001B6842F001021A60002318461437BD465D
:1002A00080BC7047002C0140000400400008004062
:1002B00080B582B000AF78607B68002B01D101234C
:1002C00041E07B6893F83D30DBB2002B06D17B68C0
:1002D000002283F83C20786803F0A6FE7B680222A7
:1002E00083F83D207B681A687B6804331946104602
:1002F00000F00AFB7B68012283F846207B6801221C
:1003000083F83E207B68012283F83F207B6801222E
:1003100083F840207B68012283F841207B6801221A
:1003200083F842207B68012283F843207B68012206
:1003300083F844207B68012283F845207B680122F2
:1003400083F83D20002318460837BD4680BD0000D5
:1003500080B584B000AF786039603B68002B09D16C
:100360007B6893F83E30DBB2012B14BF01230023DE
:10037000DBB222E03B68042B09D17B6893F83F3065
:10038000DBB2012B14BF01230023DBB215E03B6875
:10039000082B09D17B6893F84030DBB2012B14BFE6
:1003A00001230023DBB208E07B6893F84130DBB225
:1003B000012B14BF01230023DBB2002B01D001234A
:1003C0005EE03B68002B04D17B68022283F83E206C
:1003D00013E03B68042B04D17B68022283F83F20A2
:1003E0000BE03B68082B04D17B68022283F8402095
:1003F00003E07B68022283F841207B681B680122AE
:100400003968184600F076FC7B681B681E4A9342E8
:1004100007D17B681B685A6C7B681B6842F40042FA
:100420005A647B681B68184A93420ED07B681B682D
:10043000B3F1804F09D07B681B68144A934204D003
:100440007B681B68124A934211D17B681B689B68CA
:1004500003F00703FB60FB68062B10D07B681B686A
:100460001A687B681B6842F001021A6007E07B682B
:100470001B681A687B681B6842F001021A6000233F
:1004800018461037BD4680BD002C014000040040D6
:100490000008004080B582B000AF786039607B68AA
:1004A0001B6800223968184600F024FC7B681B6832
:1004B000294A934217D17B681B681A6A41F21113CB
:1004C0001340002B0FD17B681B681A6A40F244432B
:1004D0001340002B07D17B681B685A6C7B681B6834
:1004E00022F400425A647B681B681A6A41F21113B5
:1004F0001340002B0FD17B681B681A6A40F24443FB
:100500001340002B07D17B681B681A687B681B6847
:1005100022F001021A603B68002B04D17B680122A3
:1005200083F83E2013E03B68042B04D17B68012252
:1005300083F83F200BE03B68082B04D17B68012245
:1005400083F8402003E07B68012283F841200023E8
:1005500018460837BD4680BD002C014080B584B0E8
:1005600000AF78607B681B68DB68FB607B681B689A
:100570001B69BB60BB6803F00203002B20D0FB6843
:1005800003F00203002B1BD07B681B686FF0020294
:100590001A617B6801221A777B681B689B6903F0EC
:1005A0000303002B03D0786800F093F905E0786826
:1005B00000F086F9786800F095F97B6800221A77D8
:1005C000BB6803F00403002B20D0FB6803F0040396
:1005D000002B1BD07B681B686FF004021A617B68DC
:1005E00002221A777B681B689B6903F44073002B17
:1005F00003D0786800F06DF905E0786800F060F9E4
:10060000786800F06FF97B6800221A77BB6803F006
:100610000803002B20D0FB6803F00803002B1BD03D
:100620007B681B686FF008021A617B6804221A77E6
:100630007B681B68DB6903F00303002B03D0786839
:1006400000F047F905E0786800F03AF9786800F0C2
:1006500049F97B6800221A77BB6803F01003002B6E
:1006600020D0FB6803F01003002B1BD07B681B68B5
:100670006FF010021A617B6808221A777B681B688A
:10068000DB6903F44073002B03D0786800F021F994
:1006900005E0786800F014F9786800F023F97B68C9
:1006A00000221A77BB6803F00103002B0CD0FB6813
:1006B00003F00103002B07D07B681B686FF0010279
:1006C0001A61786803F056FBBB6803F08003002BC7
:1006D0000CD0FB6803F08003002B07D07B681B68FD
:1006E0006FF080021A61786800F0E0FBBB6803F0ED
:1006F0004003002B0CD0FB6803F04003002B07D015
:100700007B681B686FF040021A61786800F0F3F8AC
:10071000BB6803F02003002B0CD0FB6803F0200320
:10072000002B07D07B681B686FF020021A61786885
:1007300000F0B3FB00BF1037BD4680BD80B586B06A
:1007400000AFF860B9607A600023FB75FB6893F82E
:100750003C30012B01D10223AEE0FB68012283F87B
:100760003C207B680C2B00F29F8001A252F823F002
:10077000A5070008A9080008A9080008A90800089A
:10078000E5070008A9080008A9080008A90800084A
:1007900027080008A9080008A9080008A9080008F7
:1007A00067080008FB681B68B968184600F01AF96A
:1007B000FB681B689A69FB681B6842F008029A6133
:1007C000FB681B689A69FB681B6822F004029A6147
:1007D000FB681B689969BB681A69FB681B680A4358
:1007E0009A6164E0FB681B68B968184600F060F91C
:1007F000FB681B689A69FB681B6842F400629A6197
:10080000FB681B689A69FB681B6822F480629A6126
:10081000FB681B689969BB681B691A02FB681B6847
:100820000A439A6143E0FB681B68B968184600F008
:10083000A9F9FB681B68DA69FB681B6842F00802CB
:10084000DA61FB681B68DA69FB681B6822F0040246
:10085000DA61FB681B68D969BB681A69FB681B68A9
:100860000A43DA6123E0FB681B68B968184600F0A8
:10087000F3F9FB681B68DA69FB681B6842F40062E5
:10088000DA61FB681B68DA69FB681B6822F4806226
:10089000DA61FB681B68D969BB681B691A02FB68CF
:1008A0001B680A43DA6102E00123FB7500BFFB68A5
:1008B000002283F83C20FB7D18461837BD4680BDDA
:1008C00080B483B000AF786000BF0C37BD4680BCF9
:1008D000704780B483B000AF786000BF0C37BD466E
:1008E00080BC704780B483B000AF786000BF0C3725
:1008F000BD4680BC704780B483B000AF786000BF55
:100900000C37BD4680BC704780B485B000AF7860BE
:1009100039607B681B68FB607B682F4A93420BD071
:100920007B68B3F1804F07D07B682C4A934203D099
:100930007B682B4A934208D1FB6823F07003FB606D
:100940003B685B68FA681343FB607B68224A93420A
:100950000BD07B68B3F1804F07D07B681F4A93426E
:1009600003D07B681E4A934208D1FB6823F440738E
:10097000FB603B68DB68FA681343FB60FB6823F0AD
:1009800080023B685B691343FB607B68FA681A600E
:100990003B689A687B68DA623B681A687B689A628F
:1009A0007B680D4A934203D13B681A697B681A63DE
:1009B0007B6801225A617B681B6903F00103002BED
:1009C00005D07B681B6923F001027B681A6100BFB8
:1009D0001437BD4680BC7047002C01400004004025
:1009E0000008004080B487B000AF786039607B6851
:1009F0001B6A7B617B681B6A23F001027B681A62B9
:100A00007B685B683B617B689B69FB60FB6823F0EC
:100A10007003FB60FB6823F00303FB603B681B680B
:100A2000FA681343FB607B6923F002037B613B6838
:100A30009B687A6913437B617B681C4A93420CD1A3
:100A40007B6923F008037B613B68DB687A691343A9
:100A50007B617B6923F004037B617B68134A9342CB
:100A600011D13B6923F480733B613B6923F400732C
:100A70003B613B685B693A6913433B613B689B6937
:100A80003A6913433B617B683A695A607B68FA684C
:100A90009A613B685A687B685A637B687A691A6214
:100AA00000BF1C37BD4680BC704700BF002C014012
:100AB00080B487B000AF786039607B681B6A7B6167
:100AC0007B681B6A23F010027B681A627B685B6894
:100AD0003B617B689B69FB60FB6823F4E043FB6040
:100AE000FB6823F44073FB603B681B681B02FA68D9
:100AF0001343FB607B6923F020037B613B689B68A9
:100B00001B017A6913437B617B681D4A93420DD1B7
:100B10007B6923F080037B613B68DB681B017A699A
:100B200013437B617B6923F040037B617B68144A3C
:100B3000934213D13B6923F480633B613B6923F407
:100B400000633B613B685B699B003A6913433B610F
:100B50003B689B699B003A6913433B617B683A6938
:100B60005A607B68FA689A613B685A687B689A6346
:100B70007B687A691A6200BF1C37BD4680BC70472B
:100B8000002C014080B487B000AF786039607B688A
:100B90001B6A7B617B681B6A23F480727B681A6224
:100BA0007B685B683B617B68DB69FB60FB6823F00B
:100BB0007003FB60FB6823F00303FB603B681B686A
:100BC000FA681343FB607B6923F400737B613B6825
:100BD0009B681B027A6913437B617B681D4A9342C1
:100BE0000DD17B6923F400637B613B68DB681B02EA
:100BF0007A6913437B617B6923F480637B617B6843
:100C0000144A934213D13B6923F480533B613B69FF
:100C100023F400533B613B685B691B013A69134352
:100C20003B613B689B691B013A6913433B617B68ED
:100C30003A695A607B68FA68DA613B685A687B688F
:100C4000DA637B687A691A6200BF1C37BD4680BCD4
:100C5000704700BF002C014080B487B000AF7860BF
:100C600039607B681B6A3B617B681B6A23F4805296
:100C70007B681A627B685B687B617B68DB69FB6011
:100C8000FB6823F4E043FB60FB6823F44073FB60E4
:100C90003B681B681B02FA681343FB603B6923F443
:100CA00000533B613B689B681B033A6913433B61FC
:100CB0007B680F4A934209D17B6923F480437B61AF
:100CC0003B685B699B017A6913437B617B687A6946
:100CD0005A607B68FA68DA613B685A687B681A6414
:100CE0007B683A691A6200BF1C37BD4680BC7047FA
:100CF000002C014080B487B000AFF860B9607A6022
:100D0000BB6803F01F03012202FA03F37B61FB6857
:100D10001A6A7B69DB431A40FB681A62FB681A6A2D
:100D2000BB6803F01F03796801FA03F31A43FB68F9
:100D30001A6200BF1C37BD4680BC704780B485B0C6
:100D400000AF786039607B6893F83C30012B01D1AB
:100D5000022346E07B68012283F83C207B68022264
:100D600083F83D207B681B685B68FB607B681B68C1
:100D70009B68BB60FB6823F07003FB603B681B68EB
:100D8000FA681343FB607B681B68FA685A607B68EB
:100D90001B68164A93420ED07B681B68B3F1804FE4
:100DA00009D07B681B68124A934204D07B681B6899
:100DB000104A93420CD1BB6823F08003BB603B68B0
:100DC0005B68BA681343BB607B681B68BA689A604B
:100DD0007B68012283F83D207B68002283F83C2059
:100DE000002318461437BD4680BC7047002C0140D4
:100DF000000400400008004080B485B000AF786077
:100E000039600023FB607B6893F83C30012B01D1F3
:100E100002233DE07B68012283F83C20FB6823F03D
:100E2000FF023B68DB681343FB60FB6823F44072FE
:100E30003B689B681343FB60FB6823F480623B685C
:100E40005B681343FB60FB6823F400623B681B682C
:100E50001343FB60FB6823F480523B681B69134318
:100E6000FB60FB6823F400523B685B691343FB6043
:100E7000FB6823F480423B68DB691343FB607B68BB
:100E80001B68FA685A647B68002283F83C200023C0
:100E900018461437BD4680BC704780B483B000AF9D
:100EA000786000BF0C37BD4680BC704780B483B00B
:100EB00000AF786000BF0C37BD4680BC70470000B3
:100EC00080B586B000AF78600023FB7500233B61DE
:100ED0000023BB600023FB607B68002B01D1012352
:100EE000BEE07B689B68002B7B689B6A002B09D166
:100EF0007B680022DA627B68002283F8242078680D
:100F000002F0AEFF786800F0C5FB0346FB757B6816
:100F10009B6A03F01003002B40F09980FB7D002BAF
:100F200040F095807B689B6A23F4885323F002038A
:100F300043F002027B689A627B685A687B68DB69CF
:100F40001A437B681B7B5B001343BA681343BB6087
:100F50007B689B68B3F5807F03D07B689B68012B1F
:100F600002D14FF4807300E000233A6913433B61E0
:100F70007B681B7D012B19D17B681B7B002B09D162
:100F80007B689B69013B5A033B69134343F400634D
:100F90003B610BE07B689B6A43F020027B689A62AE
:100FA0007B68DB6A43F001027B68DA627B681B685E
:100FB0005B6823F469417B681B683A690A435A609D
:100FC0007B681B689A68284B13407A681268B96876
:100FD0000B4393607B689B68B3F5807F03D07B688D
:100FE0009B68012B04D17B681B69013B1B05FB60DF
:100FF0007B681B68DB6A23F470017B681B68FA68F6
:101000000A43DA627B681B689A68184B1340BA6817
:101010009A420BD17B680022DA627B689B6A23F0DC
:10102000030343F001027B689A6218E07B689B6AC5
:1010300023F0120343F010027B689A627B68DB6A3C
:1010400043F001027B68DA620123FB7507E07B68ED
:101050009B6A43F010027B689A620123FB75FB7D5B
:1010600018461837BD4680BDFDF7E1FFFE0E1FFF95
:1010700080B584B000AF78600023FB737B6893F881
:101080002430012B01D1022398E07B68012283F8F0
:101090002420786800F0A4FA0346FB73FB7B002B46
:1010A00040F087807B689B6A23F4407323F0010340
:1010B00043F480727B689A627B681B68414A934262
:1010C00005D1414B5B6803F47023002B15D17B687D
:1010D0009B6A23F480127B689A627B681B685B685A
:1010E00003F48063002B26D07B689B6A23F4405373
:1010F00043F480527B689A621DE07B689B6A43F4EC
:1011000080127B689A627B681B682F4A934204D0E6
:101110007B681B682B4A93420DD12B4B5B6803F411
:101120008063002B07D07B689B6A23F4405343F411
:1011300080527B689A627B689B6A03F48053002B21
:1011400006D07B68DB6A23F006027B68DA6202E085
:101150007B680022DA627B68002283F824207B68A7
:101160001B686FF002021A607B681B689B6803F4BF
:101170006023B3F5602F13D17B681B68114A93423B
:1011800005D1114B5B6803F47023002B08D17B68F9
:101190001B689A687B681B6842F4A0029A600CE0A6
:1011A0007B681B689A687B681B6842F480129A60AF
:1011B00003E07B68002283F82420FB7B184610376D
:1011C000BD4680BD002801400024014090B587B095
:1011D00000AF7860396000237B610023FB6000234F
:1011E0003B6100F0C1FA78617B681B689B6803F47F
:1011F0008073002B0BD07B689B6A43F020027B68D6
:101200009A627B68002283F824200123D3E07B6864
:101210001B685B6803F48073002B31D17B681B680B
:10122000DB6A03F47003002B2AD121E03B68B3F1A1
:10123000FF3F1DD03B68002B07D000F095FA024617
:101240007B69D31A3A689A4212D27B681B681B6882
:1012500003F00203002B0BD17B689B6A43F004026E
:101260007B689A627B68002283F824200323A2E033
:101270007B681B681B6803F00203002BD6D070E06C
:101280004F4B1C68022000F093FF0346B4FBF3F2BF
:101290007B681B6819694B4B0B40002B18D17B688E
:1012A0001B68D968484B0B40002B11D17B681B6829
:1012B0001969464B0B40002B08D17B681B68D96825
:1012C000434B0B40002B01D1142320E029231EE0C7
:1012D0007B681B6819693D4B0B40002B06D17B686E
:1012E0001B68D9683A4B0B40002B0DD07B681B68FC
:1012F0001969384B0B40002B08D17B681B68D968F3
:10130000344B0B40002B01D1542300E0FC2302FBA3
:1013100003F33B6121E03B68B3F1FF3F1AD03B6828
:10132000002B07D000F020FA02467B69D31A3A68F6
:101330009A420FD2FB683A699A420BD97B689B6A42
:1013400043F004027B689A627B68002283F82420C1
:10135000032330E0FB680133FB60FB683A699A4283
:10136000D9D87B681B686FF012021A607B689B6A91
:1013700043F400727B689A627B681B689B6803F485
:101380006023B3F5602F15D17B681B7B002B11D137
:101390007B689B6A23F480727B689A627B689B6A95
:1013A00003F48053002B05D17B689B6A43F0010254
:1013B0007B689A62002318461C37BD4690BD00BF6B
:1013C00000000020244992242449920092244912CA
:1013D000922449004992240080B483B000AF786021
:1013E0007B681B68DB6C18460C37BD4680BC7047B9
:1013F00080B485B000AF786039600023FB730023B0
:10140000BB607B6893F82430012B01D10223DCE020
:101410007B68012283F824203B685B68062B1CD87C
:101420007B681B68596B3B685A6813469B001344E2
:10143000053B1F2202FA03F3DB4319403B6818689F
:101440003B685A6813469B001344053B00FA03F2BD
:101450007B681B680A435A633CE03B685B680C2B63
:101460001CD87B681B68196B3B685A6813469B0045
:101470001344233B1F2202FA03F3DB4319403B686A
:1014800018683B685A6813469B001344233B00FAD4
:1014900003F27B681B680A431A631BE07B681B68C6
:1014A000D96A3B685A6813469B001344413B1F228C
:1014B00002FA03F3DB4319403B6818683B685A683B
:1014C00013469B001344413B00FA03F27B681B6800
:1014D0000A43DA623B681B68092B1CD97B681B68CE
:1014E000D9683B681A6813465B0013441E3B072209
:1014F00002FA03F3DB4319403B6898683B681A68BB
:1015000013465B0013441E3B00FA03F27B681B6822
:101510000A43DA6019E07B681B6819693B681A683E
:1015200013465B001344072202FA03F3DB4319401E
:101530003B6898683B681A6813465B00134400FADE
:1015400003F27B681B680A431A613B681B68102B17
:1015500003D03B681B68112B32D17B681B681D4A86
:10156000934225D17B681B689B6803F40003002B22
:1015700026D17B681B689A687B681B6842F400026E
:101580009A603B681B68102B1AD1134B1B68134AD7
:10159000A2FB03239A0C13469B0013445B00BB6021
:1015A00002E0BB68013BBB60BB68002BF9D107E0E0
:1015B0007B689B6A43F020027B689A620123FB737D
:1015C0007B68002283F82420FB7B18461437BD4635
:1015D00080BC7047002401400000002083DE1B43D4
:1015E00080B584B000AF78600023FB600023BB604F
:1015F0007B681B689B6803F00103012B40D07B686C
:101600001B689A687B681B6842F001029A601F4B56
:101610001B681F4AA2FB03239B0CBB6002E0BB6854
:10162000013BBB60BB68002BF9D100F09DF8F8606E
:101630001FE000F099F80246FB68D31A022B18D974
:101640007B681B689B6803F00103012B11D07B684A
:101650009B6A43F010027B689A627B68DB6A43F006
:1016600001027B68DA627B68002283F82420012370
:1016700007E07B681B689B6803F00103012BD8D14E
:10168000002318461037BD4680BD00BF0000002073
:1016900083DE1B4380B584B000AF78600023FB601D
:1016A0007B681B689B6803F00103012B2ED17B68CC
:1016B0001B689A687B681B6822F001029A6000F040
:1016C00053F8F8601BE000F04FF80246FB68D31AAD
:1016D000022B14D97B681B689B6803F00103012B64
:1016E0000DD17B689B6A43F010027B689A627B682D
:1016F000DB6A43F001027B68DA62012307E07B6862
:101700001B689B6803F00103012BDCD00023184603
:101710001037BD4680BD000080B500AF084B1B6888
:10172000074A43F010031360032001F04FFA0F2023
:1017300002F052FD02F062FB0023184680BD00BF9C
:101740000020024080B400AF054B1B781A46054BC1
:101750001B681344034A136000BFBD4680BC70473A
:10176000080000209C00002080B400AF024B1B68E2
:101770001846BD4680BC70479C00002080B584B0F0
:1017800000AF7860FFF7F0FFB8607B68FB60FB6834
:10179000B3F1FF3F05D00A4B1B781A46FB68134490
:1017A000FB6000BFFFF7E0FF0246BB68D31AFA6890
:1017B0009A42F7D800BF00BF1037BD4680BD00BFBA
:1017C0000800002080B586B000AF78607B68002BF1
:1017D00001D1012372E27B681B6803F00103002B37
:1017E00000F08780924B5B6803F00C03042B0CD055
:1017F0008F4B5B6803F00C03082B12D18C4B5B689A
:1018000003F48033B3F5803F0BD1894B1B6803F49D
:101810000033002B6CD07B685B68002B68D1012300
:101820004CE27B685B68B3F5803F06D1804B1B6858
:101830007F4A43F4803313602EE07B685B68002BA3
:101840000CD17B4B1B687A4A23F480331360784BAE
:101850001B68774A23F4802313601DE07B685B6874
:10186000B3F5A02F0CD1724B1B68714A43F480234F
:1018700013606F4B1B686E4A43F4803313600BE0B8
:101880006B4B1B686A4A23F480331360684B1B68F8
:10189000674A23F4802313607B685B68002B13D0B6
:1018A000FFF762FF386108E0FFF75EFF02463B6921
:1018B000D31A642B01D9032300E25D4B1B6803F4A8
:1018C0000033002BF0D014E0FFF74EFF386108E042
:1018D000FFF74AFF02463B69D31A642B01D9032361
:1018E000ECE1534B1B6803F40033002BF0D100E014
:1018F00000BF7B681B6803F00203002B63D04C4BD6
:101900005B6803F00C03002B0BD0494B5B6803F0C2
:101910000C03082B1CD1464B5B6803F48033002B6F
:1019200016D1434B1B6803F00203002B05D07B68E4
:101930001B69012B01D00123C0E13D4B1B6823F043
:10194000F8027B685B69DB00394913430B603AE0BE
:101950007B681B69002B20D0364B01221A60FFF7F1
:1019600003FF386108E0FFF7FFFE02463B69D31A28
:10197000022B01D90323A1E12D4B1B6803F00203C5
:10198000002BF0D02A4B1B6823F0F8027B685B69C0
:10199000DB00274913430B6015E0264B00221A6039
:1019A000FFF7E2FE386108E0FFF7DEFE02463B6922
:1019B000D31A022B01D9032380E11D4B1B6803F0CE
:1019C0000203002BF0D17B681B6803F00803002B97
:1019D0003AD07B689B69002B19D0174B01221A6003
:1019E000FFF7C2FE386108E0FFF7BEFE02463B6922
:1019F000D31A022B01D9032360E10D4B5B6A03F07C
:101A00000203002BF0D0012000F0FEFA1CE00A4B8C
:101A100000221A60FFF7A8FE38610FE0FFF7A4FE6E
:101A200002463B69D31A022B08D9032346E100BFC3
:101A3000001002400000424280044242924B5B6A26
:101A400003F00203002BE9D17B681B6803F0040359
:101A5000002B00F0A6800023FB758B4BDB6903F0A5
:101A60008053002B0DD1884BDB69874A43F08053AC
:101A7000D361854BDB6903F08053BB60BB680123F6
:101A8000FB75824B1B6803F48073002B18D17F4BCE
:101A90001B687E4A43F480731360FFF765FE38616C
:101AA00008E0FFF761FE02463B69D31A642B01D9B7
:101AB000032303E1754B1B6803F48073002BF0D004
:101AC0007B68DB68012B06D16F4B1B6A6E4A43F0C3
:101AD000010313622DE07B68DB68002B0CD16A4B9D
:101AE0001B6A694A23F001031362674B1B6A664A4B
:101AF00023F0040313621CE07B68DB68052B0CD128
:101B0000614B1B6A604A43F0040313625E4B1B6A1D
:101B10005D4A43F0010313620BE05B4B1B6A5A4AB8
:101B200023F001031362584B1B6A574A23F0040346
:101B300013627B68DB68002B15D0FFF715FE386158
:101B40000AE0FFF711FE02463B69D31A41F28832E0
:101B5000934201D90323B1E04B4B1B6A03F002030C
:101B6000002BEED014E0FFF7FFFD38610AE0FFF72D
:101B7000FBFD02463B69D31A41F28832934201D9F8
:101B800003239BE0404B1B6A03F00203002BEED1C2
:101B9000FB7D012B05D13C4BDB693B4A23F0805395
:101BA000D3617B68DB69002B00F08780364B5B6874
:101BB00003F00C03082B61D07B68DB69022B46D154
:101BC000334B00221A60FFF7CFFD386108E0FFF7C2
:101BD000CBFD02463B69D31A022B01D903236DE0EA
:101BE000294B1B6803F00073002BF0D17B681B6A44
:101BF000B3F5803F08D1244B5B6823F400327B6847
:101C00009B68214913434B601F4B5B6823F474129C
:101C10007B68196A7B685B6A0B431B4913434B6003
:101C20001B4B01221A60FFF79FFD386108E0FFF7A8
:101C30009BFD02463B69D31A022B01D903233DE0E9
:101C4000114B1B6803F00073002BF0D035E0104BF4
:101C500000221A60FFF788FD386108E0FFF784FD75
:101C600002463B69D31A022B01D9032326E0064B17
:101C70001B6803F00073002BF0D11EE07B68DB696A
:101C8000012B07D1012319E0001002400070004031
:101C9000600042420B4B5B68FB60FB6803F48032E0
:101CA0007B681B6A9A4206D1FB6803F470127B685A
:101CB0005B6A9A4201D0012300E0002318461837DE
:101CC000BD4680BD0010024080B584B000AF786092
:101CD00039607B68002B01D10123D0E06A4B1B687F
:101CE00003F007033A689A4210D9674B1B6823F048
:101CF000070265493B6813430B60634B1B6803F0A5
:101D000007033A689A4201D00123B8E07B681B6858
:101D100003F00203002B20D07B681B6803F0040350
:101D2000002B05D0594B5B68584A43F4E06353607D
:101D30007B681B6803F00803002B05D0534B5B68DE
:101D4000524A43F460535360504B5B6823F0F002F7
:101D50007B689B684D4913434B607B681B6803F0AD
:101D60000103002B40D07B685B68012B07D1474BF8
:101D70001B6803F40033002B15D101237FE07B683F
:101D80005B68022B07D1414B1B6803F00073002BEB
:101D900009D1012373E03D4B1B6803F00203002BC4
:101DA00001D101236BE0394B5B6823F003027B68B0
:101DB0005B68364913434B60FFF7D6FCF8600AE0D6
:101DC000FFF7D2FC0246FB68D31A41F288329342F5
:101DD00001D9032353E02D4B5B6803F00C027B68B1
:101DE0005B689B009A42EBD1274B1B6803F007030B
:101DF0003A689A4210D2244B1B6823F0070222490A
:101E00003B6813430B60204B1B6803F007033A68E1
:101E10009A4201D0012332E07B681B6803F004037F
:101E2000002B08D0194B5B6823F4E0627B68DB6809
:101E3000164913434B607B681B6803F00803002BB3
:101E400009D0124B5B6823F460527B681B69DB008E
:101E50000E4913434B6000F021F802460B4B5B68C0
:101E60001B0903F00F030A49CB5C22FA03F3094A6A
:101E70001360094B1B68184602F0AEF900231846A0
:101E80001037BD4680BD00BF002002400010024058
:101E900058AE0008000000200400002080B487B085
:101EA00000AF0023FB600023BB6000237B610023A5
:101EB0007B6000233B611E4B5B68FB60FB6803F0AB
:101EC0000C03042B02D0082B03D027E0194B3B61F5
:101ED00027E0FB689B0C03F00F03174AD35C7B6081
:101EE000FB6803F48033002B10D0114B5B685B0C54
:101EF00003F00103114AD35CBB607B680D4A03FB0E
:101F000002F2BB68B2FBF3F37B6104E07B680C4A2E
:101F100002FB03F37B617B693B6102E0054B3B61A4
:101F200000BF3B6918461C37BD4680BC704700BFE8
:101F30000010024000127A0070AE000880AE000867
:101F400000093D0080B400AF024B1B681846BD4637
:101F500080BC70470000002080B500AFFFF7F2FFA3
:101F60000246054B5B681B0A03F007030349CB5C81
:101F700022FA03F3184680BD0010024068AE000844
:101F800080B500AFFFF7DEFF0246054B5B68DB0A5A
:101F900003F007030349CB5C22FA03F3184680BD24
:101FA0000010024068AE000880B483B000AF7860D3
:101FB00039607B680F221A60114B5B6803F00302E3
:101FC0007B685A600E4B5B6803F0F0027B689A6096
:101FD0000B4B5B6803F4E0627B68DA60084B5B687C
:101FE000DB0803F4E0627B681A61064B1B6803F0B0
:101FF00007023B681A6000BF0C37BD4680BC7047C3
:10200000001002400020024080B485B000AF78602C
:102010000A4B1B680A4AA2FB03235B0A7A6802FB8D
:1020200003F3FB6000BFFB685A1EFA60002BF9D176
:1020300000BF00BF1437BD4680BC704700000020C1
:10204000D34D621080B586B000AF786000233B614D
:102050000023FB607B681B6803F00103002B7DD02D
:102060000023FB754F4BDB6903F08053002B0DD130
:102070004C4BDB694B4A43F08053D361494BDB69DE
:1020800003F08053BB60BB680123FB75464B1B68A4
:1020900003F48073002B18D1434B1B68424A43F46E
:1020A00080731360FFF760FB386108E0FFF75CFBAB
:1020B00002463B69D31A642B01D903236DE03A4BE6
:1020C0001B6803F48073002BF0D0364B1B6A03F4BB
:1020D0004073FB60FB68002B2ED07B685B6803F4C9
:1020E0004073FA689A4227D02E4B1B6A23F4407340
:1020F000FB602E4B01221A602C4B00221A60294AE9
:10210000FB681362FB6803F00103002B14D0FFF798
:102110002BFB38610AE0FFF727FB02463B69D31A25
:1021200041F28832934201D9032336E01D4B1B6AEA
:1021300003F00203002BEED01A4B1B6A23F440720B
:102140007B685B68174913430B62FB7D012B05D14C
:10215000144BDB69134A23F08053D3617B681B68FF
:1021600003F00203002B08D00E4B5B6823F44042BF
:102170007B689B680B4913434B607B681B6803F0CB
:102180001003002B08D0074B5B6823F480027B68A8
:10219000DB68044913434B60002318461837BD46DB
:1021A00080BD00BF00100240007000404004424269
:1021B00080B588B000AF786000237B610023FB61AD
:1021C00000233B610023FB600023BB617B68102B75
:1021D0000AD07B68102B00F28A807B68012B45D0E7
:1021E0007B68022B75D082E0464B5B68FB60454BF9
:1021F0001B6803F08073002B7BD0FB689B0C03F003
:102200000F03414AD35C3B61FB6803F48033002B2E
:1022100015D03C4B5B685B0C03F001033B4AD35C7D
:102220007B61FB6803F48033002B0DD0384A7B6957
:10223000B2FBF3F23B6902FB03F3FB6104E03B6991
:10224000344A02FB03F3FB612E4B5B6803F480030B
:10225000B3F5800F02D1FB69BB614AE0FB695B000B
:102260002D4AA2FB03235B08BB6142E0254B1B6A9E
:10227000FB60FB6803F44073B3F5807F08D1FB6813
:1022800003F00203002B03D04FF40043BB611FE0B7
:10229000FB6803F44073B3F5007F09D1194B5B6A07
:1022A00003F00203002B03D049F64043BB610FE06B
:1022B000FB6803F44073B3F5407F1CD1114B1B68DE
:1022C00003F40033002B16D04FF22443BB6112E01D
:1022D00011E0FFF755FE02460A4B5B689B0B03F0CB
:1022E000030301335B00B2FBF3F3BB6104E000BF07
:1022F00002E000BF00E000BFBB6918462037BD46C2
:1023000080BD00BF0010024084AE000894AE0008FB
:1023100000127A0000093D00ABAAAAAA80B48BB0D3
:1023200000AF7860396000237B6200233B6269E183
:1023300001227B6A02FA03F3FB613B681B68FA69BE
:102340001340BB61BA69FB699A4240F058813B680F
:102350005B689A4A93425ED0984A934275D8984AED
:10236000934258D0964A93426FD8964A934252D09D
:10237000944A934269D8944A93424CD0924A9342E9
:1023800063D8924A934246D0904A93425DD8122B2A
:102390002AD8122B59D801A252F823F0172400088A
:1023A000F123000803240008452400084B240008FA
:1023B0004B2400084B2400084B2400084B24000841
:1023C0004B2400084B2400084B2400084B24000831
:1023D0004B2400084B2400084B2400084B24000821
:1023E000F92300080D240008794A934213D02CE009
:1023F0003B68DB683B6229E03B68DB6804333B6297
:1024000024E03B68DB6808333B621FE03B68DB6825
:102410000C333B621AE03B689B68002B02D104231B
:102420003B6213E03B689B68012B05D108233B62AC
:102430007B68FA691A6109E008233B627B68FA69E4
:102440005A6103E000233B6200E000BFBB69FF2B41
:1024500001D87B6801E07B6804337B61BB69FF2B9B
:1024600002D87B6A9B0002E07B6A083B9B003B61D1
:102470007B691A680F213B6901FA03F3DB431A40B9
:10248000396A3B6901FA03F31A437B691A603B68B6
:102490005B6803F08053002B00F0B1804D4B9B69CB
:1024A0004C4A43F0010393614A4B9B6903F00103DB
:1024B000BB60BB68484A7B6A9B08023352F82330F2
:1024C000FB607B6A03F003039B000F2202FA03F315
:1024D000DB43FA681340FB607B68404A934213D0A9
:1024E0007B683F4A93420DD07B683E4A934207D0B7
:1024F0007B683D4A934201D1032306E0042304E0B4
:10250000022302E0012300E000237A6A02F00302C2
:1025100092009340FA681343FB602F497B6A9B0843
:102520000233FA6841F823203B685B6803F48013A8
:10253000002B06D02D4B9A682C49BB6913438B6046
:1025400006E02A4B9A68BB69DB43284913408B603D
:102550003B685B6803F40013002B06D0234BDA685A
:102560002249BB691343CB6006E0204BDA68BB69A4
:10257000DB431E491340CB603B685B6803F40033C8
:10258000002B06D0194B5A681849BB6913434B609E
:1025900006E0164B5A68BB69DB43144913404B6095
:1025A0003B685B6803F48033002B21D00F4B1A6823
:1025B0000E49BB6913430B6021E000BF00003210DD
:1025C0000000311000002210000021100000121045
:1025D00000001110001002400000014000080140FE
:1025E000000C0140001001400014014000040140B3
:1025F0000B4B1A68BB69DB43094913400B607B6ACC
:1026000001337B623B681A687B6A22FA03F3002B72
:102610007FF48EAE00BF00BF2C37BD4680BC704734
:102620000004014080B485B000AF78600B467B8029
:102630007B689A687B881340002B02D00123FB73D0
:1026400001E00023FB73FB7B18461437BD4680BCBA
:10265000704780B483B000AF78600B467B80134630
:102660007B707B78002B03D07A887B681A6103E04B
:102670007B881A047B681A6100BF0C37BD4680BC9A
:102680007047000080B485B000AF78600023FB6025
:102690007B68002B01D1012343E07B681B681A464D
:1026A000224B1344224AA2FB03231B099A007B6896
:1026B0001A647B681F4ADA637B68022283F8212050
:1026C0007B681B681B68FB60FB6823F47F5323F067
:1026D0003003FB607B685A687B689B681A437B68A1
:1026E000DB681A437B681B691A437B685B691A4382
:1026F0007B689B691A437B68DB691343FA68134361
:10270000FB607B681B68FA681A607B6800229A632A
:102710007B68012283F821207B68002283F8202037
:10272000002318461437BD4680BC7047F8FFFDBF34
:10273000CDCCCCCC0000024080B586B000AFF860B4
:10274000B9607A603B600023FB75FB6893F820302A
:10275000012B01D102234BE0FB68012283F82020EA
:10276000FB6893F82130DBB2012B3AD1FB680222DF
:1027700083F82120FB6800229A63FB681B681A68B3
:10278000FB681B6822F001021A603B687A68B9682E
:10279000F86800F044F9FB68DB6A002B08D0FB689E
:1027A0001B681A68FB681B6842F00E021A600FE093
:1027B000FB681B681A68FB681B6822F004021A6039
:1027C000FB681B681A68FB681B6842F00A021A6003
:1027D000FB681B681A68FB681B6842F001021A60FC
:1027E00005E0FB68002283F820200223FB75FB7DB7
:1027F00018461837BD4680BD80B584B000AF7860FC
:102800007B68DB6B1B68FB607B681B681B68BB60BD
:102810007B681B6C04229A40FB681340002B4FD04E
:10282000BB6803F00403002B4AD07B681B681B685D
:1028300003F02003002B07D17B681B681A687B68B4
:102840001B6822F004021A607B681B68664A934288
:1028500029D07B681B68654A934222D07B681B683D
:10286000634A93421AD07B681B68624A934212D033
:102870007B681B68604A93420AD07B681B685F4A8A
:10288000934202D14FF480030EE04FF080630BE0DF
:102890004FF4802308E04FF4804305E04FF4806359
:1028A00002E0402300E00423554A53607B68DB6A62
:1028B000002B00F094807B68DB6A786898478EE094
:1028C0007B681B6C02229A40FB681340002B56D099
:1028D000BB6803F00203002B51D07B681B681B68A8
:1028E00003F02003002B0BD17B681B681A687B6800
:1028F0001B6822F00A021A607B68012283F82120FB
:102900007B681B68384A934229D07B681B68374A2A
:10291000934222D07B681B68354A93421AD07B6869
:102920001B68344A934212D07B681B68324A934238
:102930000AD07B681B68314A934202D14FF40013DE
:102940000EE04FF000730BE04FF4003308E04FF45B
:10295000005305E04FF4007302E0202300E002235F
:10296000274A53607B68002283F820207B689B6A9B
:10297000002B34D07B689B6A786898472FE07B688F
:102980001B6C08229A40FB681340002B28D0BB68C0
:1029900003F00803002B23D07B681B681A687B6850
:1029A0001B6822F00E021A607B681A6C7B68DB6B76
:1029B000012101FA02F25A607B6801229A637B6866
:1029C000012283F821207B68002283F820207B6885
:1029D0001B6B002B04D07B681B6B7868984700BF8B
:1029E00000BF1037BD4680BD080002401C000240F9
:1029F0003000024044000240580002406C00024097
:102A00000000024080B483B000AF78607B6893F828
:102A10002130DBB218460C37BD4680BC704780B40D
:102A200085B000AFF860B9607A603B60FB681A6CF3
:102A3000FB68DB6B012101FA02F25A60FB681B683C
:102A40003A685A60FB685B68102B08D1FB681B680A
:102A50007A689A60FB681B68BA68DA6007E0FB680E
:102A60001B68BA689A60FB681B687A68DA6000BF06
:102A70001437BD4680BC704780B485B000AF786025
:102A80007B6803F00703FB600C4BDB68BB60BA6834
:102A90004FF6FF031340BB60FB681A02BB68134389
:102AA00043F0BF6343F40033BB60044ABB68D360A8
:102AB00000BF1437BD4680BC704700BF00ED00E08A
:102AC00080B400AF044BDB681B0A03F00703184611
:102AD000BD4680BC704700BF00ED00E080B483B00D
:102AE00000AF0346FB7197F90730002B0BDBFB7936
:102AF00003F01F02064997F907305B09012000FA2D
:102B000002F241F8232000BF0C37BD4680BC70475D
:102B100000E100E080B483B000AF03463960FB7190
:102B200097F90730002B0ADB3B68DAB20C4997F9BA
:102B300007301201D2B20B4483F800230AE03B684D
:102B4000DAB20849FB7903F00F03043B1201D2B259
:102B50000B441A7600BF0C37BD4680BC704700BFDF
:102B600000E100E000ED00E080B489B000AFF86063
:102B7000B9607A60FB6803F00703FB61FB69C3F18E
:102B80000703042B28BF0423BB61FB690433062B16
:102B900002D9FB69033B00E000237B614FF0FF3269
:102BA000BB6902FA03F3DA43BB681A407B699A40B7
:102BB0004FF0FF317B6901FA03F3D9437B680B4087
:102BC000134318462437BD4680BC704780B582B099
:102BD00000AF78607868FFF74FFF00BF0837BD4649
:102BE00080BD80B586B000AF0346B9607A60FB73E4
:102BF00000237B61FFF764FF78617A68B9687869C0
:102C0000FFF7B2FF024697F90F3011461846FFF75B
:102C100081FF00BF1837BD4680BD80B582B000AFD0
:102C20000346FB7197F907301846FFF757FF00BFBF
:102C30000837BD4680BD80B582B000AF78607B6844
:102C4000002B01D1012376E07B685B6A002B08D161
:102C50007B685B68B3F5827F09D07B680022DA610C
:102C600005E07B6800221A617B6800225A617B685C
:102C700000229A627B6893F85130DBB2002B06D1B8
:102C80007B68002283F85020786801F055F97B6852
:102C9000022283F851207B681B681A687B681B68D6
:102CA00022F040021A607B685B6803F482727B68E2
:102CB0009B6803F404431A437B68DB6803F40063F6
:102CC0001A437B681B6903F002031A437B685B6944
:102CD00003F001031A437B689B6903F400731A43F2
:102CE0007B68DB6903F038031A437B681B6A03F0D7
:102CF000800342EA03017B689B6A03F400527B680D
:102D00001B680A431A607B689B691A0C7B681B6806
:102D100002F004025A607B681B68DA697B681B68F2
:102D200022F40062DA617B6800225A657B68012226
:102D300083F85120002318460837BD4680BD80B572
:102D400088B000AFF860B9603B601346FB80FEF7C7
:102D50000BFDF861FB887B83FB6893F85130DBB295
:102D6000012B01D002232AE1BB68002B02D0FB8893
:102D7000002B01D1012322E1FB6893F85030012B95
:102D800001D102231BE1FB68012283F85020FB687C
:102D9000032283F85120FB6800225A65FB68BA6859
:102DA0001A63FB68FA889A86FB68FA88DA86FB68F9
:102DB00000229A63FB6800229A87FB680022DA8768
:102DC000FB6800225A64FB6800221A64FB689B6857
:102DD000B3F5004F0FD1FB681B681A68FB681B68CE
:102DE00022F040021A60FB681B681A68FB681B68C7
:102DF00042F480421A60FB681B681B6803F04003C2
:102E0000402B07D0FB681B681A68FB681B6842F000
:102E100040021A60FB68DB68B3F5006F52D1FB68B3
:102E20005B68002B02D07B8B012B45D1FB681B6BB1
:102E30001A88FB681B68DA60FB681B6B9A1CFB68CE
:102E40001A63FB68DB8E9BB2013B9AB2FB68DA86A1
:102E500032E0FB681B689B6803F00203022B12D16F
:102E6000FB681B6B1A88FB681B68DA60FB681B6BCE
:102E70009A1CFB681A63FB68DB8E9BB2013B9AB21B
:102E8000FB68DA8618E0FEF76FFC0246FB69D31A8E
:102E90003A689A4203D83B68B3F1FF3F02D13B68DE
:102EA000002B09D1FB68012283F85120FB68002226
:102EB00083F85020032382E0FB68DB8E9BB2002B5B
:102EC000C7D153E0FB685B68002B02D07B8B012BE2
:102ED00047D1FB681A6BFB681B680C3312781A70B9
:102EE000FB681B6B5A1CFB681A63FB68DB8E9BB28A
:102EF000013B9AB2FB68DA8633E0FB681B689B688B
:102F000003F00203022B13D1FB681A6BFB681B68EA
:102F10000C3312781A70FB681B6B5A1CFB681A631F
:102F2000FB68DB8E9BB2013B9AB2FB68DA8618E045
:102F3000FEF71AFC0246FB69D31A3A689A4203D894
:102F40003B68B3F1FF3F02D13B68002B09D1FB681E
:102F5000012283F85120FB68002283F850200323CC
:102F60002DE0FB68DB8E9BB2002BC6D1FA69396875
:102F7000F86800F0FFF90346002B02D0FB6820221E
:102F80005A65FB689B68002B0AD100237B61FB68B4
:102F90001B68DB687B61FB681B689B687B617B69E6
:102FA000FB68012283F85120FB68002283F850203F
:102FB000FB685B6D002B01D0012300E00023184665
:102FC0002037BD4680BD000080B584B000AFF860FA
:102FD000B9601346FB80FB6893F85130DBB2012BDC
:102FE00001D0022397E0BB68002B02D0FB88002BA6
:102FF00001D101238FE0FB6893F85030012B01D100
:10300000022388E0FB68012283F85020FB6803223A
:1030100083F85120FB6800225A65FB68BA681A637E
:10302000FB68FA889A86FB68FA88DA86FB680022D1
:103030009A63FB6800225A64FB6800221A64FB68EA
:1030400000229A87FB680022DA87FB689B68B3F549
:10305000004F0FD1FB681B681A68FB681B6822F0E1
:1030600040021A60FB681B681A68FB681B6842F420
:1030700080421A60FB689B6C294ADA62FB689B6C91
:10308000284A9A62FB689B6C274A1A63FB689B6C10
:1030900000225A63FB68986CFB681B6B1946FB683F
:1030A0001B680C331A46FB68DB8E9BB2FFF744FBB0
:1030B0000346002B0BD0FB685B6D43F01002FB68EE
:1030C0005A65FB68002283F85020012323E0FB6847
:1030D0001B681B6803F04003402B07D0FB681B688C
:1030E0001A68FB681B6842F040021A60FB68002205
:1030F00083F85020FB681B685A68FB681B6842F025
:1031000020025A60FB681B685A68FB681B6842F023
:1031100002025A60002318461037BD4680BD00BF2A
:1031200009320008633100082532000880B483B0FA
:1031300000AF786000BF0C37BD4680BC704780B4DC
:1031400083B000AF786000BF0C37BD4680BC7047CD
:1031500080B483B000AF786000BF0C37BD4680BC40
:10316000704780B586B000AF78607B685B6A7B6132
:10317000FEF7FAFA38617B681B681B6803F02003CE
:10318000202B3BD07B691B685A687B691B6822F047
:1031900020025A607B691B685A687B691B6822F0B1
:1031A00002025A603A696421786900F0E3F8034644
:1031B000002B05D07B695B6D43F020027B695A656B
:1031C0007B699B68002B0AD10023FB607B691B682D
:1031D000DB68FB607B691B689B68FB60FB687B6945
:1031E0000022DA867B69012283F851207B695B6DBE
:1031F000002B03D07869FFF7ABFF02E07869FFF797
:1032000095FF1837BD4680BD80B584B000AF7860AB
:103210007B685B6AFB60F868FFF791FF00BF1037BF
:10322000BD4680BD80B584B000AF78607B685B6AC6
:10323000FB60FB681B685A68FB681B6822F003028E
:103240005A60FB685B6D43F01002FB685A65FB68CF
:10325000012283F85120F868FFF77AFF00BF10378A
:10326000BD4680BD80B588B000AFF860B9603B60F6
:103270001346FB71FEF778FA0246BB6A9B1A3A685E
:103280001344FB61FEF770FAB861394B1B685B01B0
:103290001B0DFA6902FB03F37B6154E03B68B3F159
:1032A000FF3F50D0FEF760FA0246BB69D31AFA69B5
:1032B0009A4202D9FB69002B3DD1FB681B685A6812
:1032C000FB681B6822F0E0025A60FB685B68B3F59C
:1032D000827F11D1FB689B68B3F5004F04D0FB6877
:1032E0009B68B3F5806F07D1FB681B681A68FB68A1
:1032F0001B6822F040021A60FB689B6AB3F5005F0E
:103300000FD1FB681B681A68FB681B6822F4005227
:103310001A60FB681B681A68FB681B6842F400525D
:103320001A60FB68012283F85120FB68002283F8B1
:103330005020032317E07B69002B01D10023FB61A0
:103340007B69013B7B61FB681B689A68BB68134023
:10335000BA689A420CBF01230023DBB21A46FB79FC
:103360009A429BD1002318462037BD4680BD00BF3E
:103370000000002080B586B002AFF860B9607A60C6
:103380007B680093BB6801220221F868FFF76AFF9F
:103390000346002B07D0FB685B6D43F02002FB68FF
:1033A0005A65032313E07B680093BB6800228021E9
:1033B000F868FFF757FF0346002B07D0FB685B6DEB
:1033C00043F02002FB685A65032300E000231846FF
:1033D0001037BD4680BD80B582B000AF78607B6895
:1033E000002B01D1012342E07B6893F84130DBB22E
:1033F000002B06D17B68002283F84020786800F01B
:1034000065FE7B68242283F841207B681B68DA68AC
:103410007B681B6822F40052DA60786800F02CF8B0
:103420007B681B681A697B681B6822F490421A61EA
:103430007B681B685A697B681B6822F02A025A6104
:103440007B681B68DA687B681B6842F40052DA60AC
:103450007B6800225A647B68202283F841207B68C5
:10346000202283F842207B6800225A6300231846FA
:103470000837BD4680BD000080B584B000AF7860DD
:103480007B681B681B6923F440517B68DA687B68A2
:103490001B680A431A617B689A687B681B691A4338
:1034A0007B685B691343BB607B681B68DB6823F444
:1034B000B05323F00C037A681268B9680B43D360E9
:1034C0007B681B685B6923F440717B689A697B6841
:1034D0001B680A435A617B681B682C4A934203D1DC
:1034E000FEF74EFDF86002E0FEF736FDF860FA6880
:1034F00013469B0013449A001A447B685B689B0048
:10350000B2FBF3F3224AA2FB03235B091901FA6819
:1035100013469B0013449A001A447B685B689B0027
:10352000B2FBF3F21A4BA3FB02035B09642000FB1E
:1035300003F3D31A1B013233154AA2FB03235B09A1
:1035400003F0F0031944FA6813469B0013449A00F1
:103550001A447B685B689B00B2FBF3F20C4BA3FB45
:1035600002035B09642000FB03F3D31A1B0132330F
:10357000074AA2FB03235B0903F00F027B681B6869
:103580000A449A6000BF1037BD4680BD0038014034
:103590001F85EB5180B584B002AFFEF7BDF800F097
:1035A00039F800F0F9F900F0D9F900F0C9F800F0A5
:1035B00089F800F0FBF800F07DF900F0A5F902F0C1
:1035C00093FE0F4800F080FB002301930223009339
:1035D00000234FF480720B490B4805F0DBFA78604A
:1035E000002301930323009300234FF40072074943
:1035F000074805F0CFFA786005F0A8FC00BFFDE7AA
:10360000440200208CAC0008893B0008A0AC0008F4
:10361000453B000880B594B000AF07F1280328228D
:103620000021184606F06FFA07F1140300221A6011
:103630005A609A60DA601A613B1D00221A605A6073
:103640009A60DA600223BB620123BB631023FB6331
:1036500002237B640023BB644FF46013FB6407F117
:1036600028031846FEF7AEF80346002B01D000F001
:1036700090FB0F237B610223BB610023FB614FF4AE
:1036800080633B6200237B6207F11403022118462A
:10369000FEF71AFB0346002B01D000F07AFB022351
:1036A0007B604FF40043FB603B1D1846FEF7CAFCED
:1036B0000346002B01D000F06CFB00BF5037BD4625
:1036C00080BD000080B584B000AF3B1D00221A60B1
:1036D0005A609A60184B194A1A60174B00229A6078
:1036E000154B00221A73144B00221A75124B4FF41B
:1036F0006022DA61104B00225A600F4B01221A61DE
:103700000D48FDF7DDFB0346002B01D000F041FB27
:1037100006237B600123BB600023FB603B1D194631
:103720000548FDF765FE0346002B01D000F031FB94
:1037300000BF1037BD4680BDA0000020002401401E
:1037400080B500AF174B184A1A60164B4FF48272BF
:103750005A60144B00229A60124B0022DA60114B1F
:1037600000221A610F4B00225A610E4B4FF4007277
:103770009A610C4B1022DA610A4B00221A62094B43
:1037800000225A62074B00229A62064B0A22DA6232
:103790000448FFF750FA0346002B01D000F0F9FA75
:1037A00000BF80BDD00000200030014080B592B045
:1037B00000AF07F1400300221A605A6007F12403AA
:1037C00000221A605A609A60DA601A615A619A613E
:1037D0003B1D20220021184606F095F9334B344A50
:1037E0001A60324B00225A60304B00229A602F4BF5
:1037F00042F21672DA602D4B00221A612B4B002226
:103800005A612A4B00229A612848FCF751FD034671
:10381000002B01D000F0BDFA00233B6400237B6441
:1038200007F1400319462148FDF788FA0346002BAB
:1038300001D000F0AEFA60237B624FF4FA73BB62F2
:103840000023FB6200233B6300237B630023BB63F5
:103850000023FB6307F12403002219461348FCF7F9
:103860006DFF0346002B01D000F093FA00237B602C
:103870000023BB600023FB6000233B6100237B61CE
:103880004FF40053BB6100233B623B1D19460748C0
:10389000FDF7B2FA0346002B01D000F07AFA034894
:1038A00000F0E0FB00BF4837BD4680BD6C01002042
:1038B000002C014080B500AF114B124A1A60104B2A
:1038C0004FF4E1325A600E4B00229A600C4B0022FA
:1038D000DA600B4B00221A61094B0C225A61084B2B
:1038E00000229A61064B0022DA610548FFF773FD5A
:1038F0000346002B01D000F04CFA00BF80BD00BF92
:10390000B40100200044004080B500AF114B124AC2
:103910001A60104B4FF4E1325A600E4B00229A604D
:103920000C4B0022DA600B4B00221A61094B0C226F
:103930005A61084B00229A61064B0022DA61054861
:10394000FFF749FD0346002B01D000F022FA00BF2B
:1039500080BD00BFFC0100200048004080B582B05F
:1039600000AF0C4B5B690B4A43F001035361094BF9
:103970005B6903F001037B607B68002200210D205E
:10398000FFF72FF90D20FFF748F900BF0837BD46B4
:1039900080BD00BF0010024080B588B000AF07F1C5
:1039A000100300221A605A609A60DA60514B9B69DA
:1039B000504A43F0100393614E4B9B6903F0100390
:1039C000FB60FB684B4B9B694A4A43F004039361DD
:1039D000484B9B6903F00403BB60BB68454B9B6984
:1039E000444A43F008039361424B9B6903F0080388
:1039F0007B607B68002206213F48FEF72AFE0022FA
:103A000020213E48FEF725FE01224FF4E0713C489C
:103A1000FEF71FFE02233B6101237B610223BB6192
:103A20000223FB6107F1100319463348FEF776FCC9
:103A300004233B6101237B610023BB610223FB6103
:103A400007F1100319462C48FEF768FC10233B6170
:103A500000237B610123BB6107F11003194627484E
:103A6000FEF75CFC20233B6101237B610023BB61EB
:103A70000223FB6107F1100319462048FEF74EFCB4
:103A80004FF204033B6100237B610123BB6107F11B
:103A9000100319461A48FEF741FCC0233B6100237E
:103AA0007B610123BB6107F1100319461248FEF741
:103AB00035FC40233B6101237B610023BB61032371
:103AC000FB6107F1100319460D48FEF727FC4FF480
:103AD000C0733B6101237B610123BB610323FB6155
:103AE00007F1100319460648FEF718FC00BF2037FF
:103AF000BD4680BD0010024000100140000801409A
:103B0000000C014080B586B000AF7860396007F1E5
:103B10000C0300221A605A609A603B68FB60012324
:103B20003B6100237B6107F10C0319467868FDF7C0
:103B30005FFC0346002B01D000F02BF900BF1837C3
:103B4000BD4680BD90B585B002AF78600C4B6C4629
:103B500003F10C0292E8030084E803000ECB09484D
:103B600000F09EFC064B1A6900920FCB00F0AEFDF0
:103B700001F0BCFF212005F0B3F900BFF2E700BF60
:103B8000440200206C010020B0B590B000AF786016
:103B900007F1300300221A605A600623BB63434BCF
:103BA00007F10C040FCB84E80F000023FB631EE039
:103BB000FB6B9B0040333B4453F8343C19463C4874
:103BC000FFF7A0FF3A48FDF753FA0A213848FDF7FE
:103BD000FDFA3748FDF700FC03469AB2FB6B5B0029
:103BE00040333B4423F8102CFB6B0133FB63FB6B2E
:103BF000032BDDDD2F4A304B14461D460FCD0FC47D
:103C00002B6823603A8E2C4B1A807A8E2A4B5A806E
:103C1000BA8E294BDA80FA8E274B1A811021274859
:103C2000FEF700FD03461A46234B1A71042124486F
:103C3000FEF7F8FC03461A461F4B9A724FF4805168
:103C40001F48FEF7EFFC03461A461B4B9A734FF4CE
:103C500000511B48FEF7E6FC03461A46164B5A7302
:103C600040211848FEF7DEFC03461A46124B1A7430
:103C700080211448FEF7D6FC03461A460E4BDA7331
:103C80000A210B48FFF73EFF0948FDF7F1F90A2129
:103C90000748FDF79BFA0648FDF79EFB03469AB2DC
:103CA000054B5A82212005F01BF97EE7B0AC0008D5
:103CB000A00000205802002044020020000801401B
:103CC000000C01400010014080B582B000AF786068
:103CD0007B684FF4FA621A807B684FF4FA625A806C
:103CE0007B684FF4FA62DA807B684FF4FA621A81DB
:103CF0007B680122DA727B6801221A737B680122D9
:103D00005A737B6801229A737B680122DA737B689D
:103D100001221A740A210A48FFF7F4FE0848FDF749
:103D2000A7F90A210648FDF751FA0548FDF754FBAB
:103D300003469AB27B685A8200BF0837BD4680BDF1
:103D4000A000002080B485B000AFF860B9607A6050
:103D5000FB68064A1A60BB68054A1A607B688022C5
:103D60001A6000BF1437BD4680BC70477002002047
:103D70000804002080B582B000AF78607B681B68C3
:103D8000B3F1804F01D1FDF7DDFC00BF0837BD4620
:103D900080BD80B400AF72B600BF00BFFDE780B445
:103DA00000AF00BFFDE780B400AF00BFFDE780B407
:103DB00000AF00BFFDE780B400AF00BFFDE780B4F7
:103DC00000AF00BFFDE780B400AF00BFBD4680BCC0
:103DD0007047000080B500AF0248FEF70DFD00BF40
:103DE00080BD00BF2801002080B500AF0248FCF76D
:103DF000B5FB00BF80BD00BF0806002080B485B0C1
:103E000000AF154B9B69144A43F001039361124BB9
:103E10009B6903F00103BB60BB680F4BDB690E4A73
:103E200043F08053D3610C4BDB6903F080537B601C
:103E30007B680A4B5B68FB60FB6823F0E063FB6018
:103E4000FB6843F00073FB60044AFB68536000BFEB
:103E50001437BD4680BC704700100240000001408E
:103E600080B58AB000AF786007F1180300221A60AD
:103E70005A609A60DA607B681B682A4A93424DD187
:103E8000294B9B69284A43F400739361264B9B6935
:103E900003F400737B617B69234B9B69224A43F0E7
:103EA00010039361204B9B6903F010033B613B6956
:103EB0001D4B9B691C4A43F0040393611A4B9B6999
:103EC00003F00403FB60FB68174B9B69164A43F041
:103ED00008039361144B9B6903F00803BB60BB6844
:103EE0000123BB610323FB6107F1180319460F4847
:103EF000FEF714FAC023BB610323FB6107F118032B
:103F000019460B48FEF70AFA0323BB610323FB6142
:103F100007F1180319460748FEF700FA00BF2837D3
:103F2000BD4680BD00240140001002400010014049
:103F300000080140000C014080B58AB000AF7860F5
:103F400007F1140300221A605A609A60DA607B68F5
:103F50001B682F4A934257D12E4B9B692D4A43F43D
:103F6000805393612B4B9B6903F480533B613B6906
:103F7000284B9B69274A43F008039361254B9B69B3
:103F800003F00803FB60FB6828237B610223BB610D
:103F900003233B6207F1140319461F48FEF7BEF9DD
:103FA0001E4B5B687B627B6A43F0E0637B627B6AEB
:103FB00043F001037B62194A7B6A5360184B194A2C
:103FC0001A60174B10225A60154B00229A60144B4E
:103FD0008022DA60124B00221A61114B00225A61D2
:103FE0000F4B00229A610E4B0022DA610C48FEF75B
:103FF00049FB0346002B01D0FFF7CBFE7B68084A44
:104000009A64074A7B68536200BF2837BD4680BD6B
:104010000030014000100240000C0140000001404F
:10402000280100203000024080B485B000AF7860E5
:104030007B681B68094A93420BD1094B9B69084A6C
:1040400043F400639361064B9B6903F40063FB60D8
:10405000FB6800BF1437BD4680BC7047002C014090
:104060000010024080B588B000AF786007F11003FF
:1040700000221A605A609A60DA607B681B68104AF6
:10408000934218D10F4B9B690E4A43F0040393618E
:104090000C4B9B6903F00403FB60FB684FF48073D7
:1040A0003B6102237B610223FB6107F11003194688
:1040B0000548FEF733F900BF2037BD4680BD00BF7D
:1040C000002C0140001002400008014080B58AB079
:1040D00000AF786007F1180300221A605A609A60F6
:1040E000DA607B681B68374A934230D1364BDB6914
:1040F000354A43F40033D361334BDB6903F40033B7
:104100007B617B69304B9B692F4A43F004039361C9
:104110002D4B9B6903F004033B613B690423BB61A6
:104120000223FB6103237B6207F11803194627482A
:10413000FEF7F4F80823BB610023FB6100233B6218
:1041400007F1180319462148FEF7E8F836E07B68C6
:104150001B681F4A934231D11B4BDB691A4A43F457
:104160008023D361184BDB6903F48023FB60FB6879
:10417000154B9B69144A43F008039361124B9B69EA
:1041800003F00803BB60BB684FF48063BB6102238C
:10419000FB6103237B6207F1180319460D48FEF704
:1041A000BDF84FF40063BB610023FB6100233B6259
:1041B00007F1180319460748FEF7B0F800BF283783
:1041C000BD4680BD00440040001002400008014090
:1041D00000480040000C014080B58EB000AF786010
:1041E0000023FB620023BB62002387F83330344B8B
:1041F000DB69334A43F00103D361314BDB6903F0E0
:104200000103FB60FB6807F1100207F1140311467C
:104210001846FDF7C9FE3B6AFB62FB6A002B03D11F
:10422000FDF79AFE786304E0FDF796FE03465B0017
:104230007B637B6B234AA2FB03239B0C013BBB628A
:10424000214B4FF080421A601F4B40F2E732DA6098
:104250001D4ABB6A53601C4B00221A611A4B002294
:104260009A60194B00229A611748FBF777FF0346C3
:1042700087F8333097F83330002B1BD11248FBF707
:10428000C5FF034687F8333097F83330002B11D140
:104290001C20FEF7C2FC7B680F2B08D8002279682F
:1042A0001C20FEF79EFC094A7B68136002E0012394
:1042B00087F8333097F8333018463837BD4680BD1D
:1042C0000010024083DE1B4308060020040000208B
:1042D00080B586B000AF7860144A154BD31A7B6165
:1042E0007B693B61134B1B68002B02D1114B124AB7
:1042F0001A60104B1A687B6813443A699A4207D2D5
:1043000005F0AEFC03460C221A604FF0FF3309E0C3
:10431000084B1B68FB60074B1A687B681344054A0F
:104320001360FB6818461837BD4680BD005000205A
:104330000004000050060020F821002080B400AFE7
:1043400001231846BD4680BC704780B582B000AFDF
:104350007860396005F084FC034616221A604FF03D
:10436000FF3318460837BD4680BD80B582B000AF28
:1043700078604FF0FF317868FFF7E7FF00BFFDE797
:1043800080B586B000AFF860B9607A6000237B61C9
:104390000AE0AFF300800146BB685A1CBA60CAB29B
:1043A0001A707B6901337B617A697B689A42F0DB22
:1043B0007B6818461837BD4680BD80B586B000AF13
:1043C000F860B9607A6000237B6109E0BB685A1C21
:1043D000BA601B781846AFF300807B6901337B61BC
:1043E0007A697B689A42F1DB7B6818461837BD46CC
:1043F00080BD80B483B000AF78604FF0FF331846C3
:104400000C37BD4680BC704780B483B000AF786085
:1044100039603B684FF400525A60002318460C374D
:10442000BD4680BC704780B483B000AF7860012384
:1044300018460C37BD4680BC704780B485B000AFCD
:10444000F860B9607A60002318461437BD4680BC16
:1044500070470000FBF77CFE0B480C490C4A002318
:1044600002E0D458C4500433C4188C42F9D3094A2A
:10447000094C002301E013600432A242FBD305F093
:10448000F5FBFFF787F87047000000208000002050
:104490002838010880000020F8210020FEE70000F5
:1044A00084B080B582B000AF786007F1140080E876
:1044B0000E00324B5A229A81304B9622DA812F4BD2
:1044C00000221A812D4B00225A812C4BF0221A8295
:1044D0002A4B00225A82294B00229A82274B284AD3
:1044E00092E8030083E80300264B5A229A81254B69
:1044F0009622DA81234B02221A82224B00225A8210
:10450000204B00229A821F4B1F4A92E8030083E847
:1045100003001E4B78229A801C4B7822DA801B4BBA
:1045200000221A80194B00225A80184B05221A814A
:10453000174BB3F90020154B9A81FB8C184605F0F8
:104540004FF9144B01221A7000F082F9124A7B686D
:1045500013604FF4FA7000F04BFD02460E4B1B68DF
:104560001B689A62002001F0E5FF03F071FC00BFB8
:104570000837BD46BDE8804004B0704754060020AF
:10458000C0AC00086C060020C8AC000884060020FF
:104590000A000020BC060020C806002080B500AF3D
:1045A0003F4B5A229A813E4B9622DA813C4B0022A5
:1045B0001A813B4B00225A81394BF0221A82384B28
:1045C00000225A82364B00229A82354B354A92E8B5
:1045D000030083E80300344B5A229A81324B96221F
:1045E000DA81314B02221A822F4B00225A822E4B43
:1045F00000229A822C4B2D4A92E8030083E80300A4
:104600002B4B78229A802A4B7822DA80284B002282
:104610001A80274B00225A80254B05221A81254BF0
:1046200000221A80244B1B78022B14D0022B19DC99
:10463000002B02D0012B07D014E0204B05221A805A
:104640001B4B05229A8113E01C4B0A221A80184B3F
:104650000A229A810CE0194B0F221A80144B0F2268
:104660009A8105E0154B0A221A80114B0A229A8181
:10467000134B01221A7000F0EBF84FF4FA7000F0BF
:10468000B7FC02460F4B1B681B689A620E4B002258
:104690001A70002001F04EFF03F0DAFB00BF80BD6E
:1046A00054060020C0AC00086C060020C8AC00080E
:1046B00084060020BE0600200E0000200A00002014
:1046C000BC060020C8060020C006002084B0B0B49C
:1046D00000AF07F10C0484E80F000A4A0A4B1446A5
:1046E0001D460FCD0FC42B682360074B1D4607F1F5
:1046F0000C040FCC0FC523682B6000BFBD46B0BCB7
:1047000004B07047A80600209406002080B483B04F
:1047100000AF78600B467B8013463B807B88B3F507
:10472000E16F04D37B8840F6980293426FD97B886F
:10473000A3F5FA63384A82FB03125211DB179B1A66
:104740001AB27B685A827B689B891A467B68B3F9E8
:1047500012301344002B25DD7B68DB891A467B6809
:10476000B3F912301344EF2B1CDC7B689A897B6809
:104770001A817B68DA897B685A817B689A897B68B1
:10478000B3F912309BB213449AB27B689A817B686A
:10479000DA897B68B3F912309BB213449AB27B6812
:1047A000DA8134E07B689B891A467B68B3F9123062
:1047B0001344002B07DA7B689B895B429BB21AB2D9
:1047C0007B685A8207E07B68DB89C3F1F0039BB208
:1047D0001AB27B685A827B689A897B681A817B68E7
:1047E000DA897B685A817B689A897B68B3F91230D1
:1047F0009BB213449AB27B689A817B68DA897B68A2
:10480000B3F912309BB213449AB27B68DA8100BFCD
:104810000C37BD4680BC70471F85EB5180B500AF9B
:10482000084B1B88074A528819460748FFF76EFF56
:10483000044BDB88034A128919460448FFF766FFD8
:1048400000BF80BD94060020540600206C060020A6
:1048500080B582B000AF04F0F1FF0246164B83FB37
:10486000021313449910D317C91A0B46DB005B1AC5
:10487000D11A0B46FB80114AFB88538104F0DEFFFE
:104880000346002B03F00103B8BF5B42FB80B7F97E
:104890000630002B03D1094BB3F90A3006E0074B71
:1048A000B3F90A309BB25B429BB21BB2034A5381FD
:1048B00000BF0837BD4680BD93244992840600207E
:1048C00080B582B000AF7F4B1B78002B11D07E4BA0
:1048D000B3F90C30002B07DC7C4BB3F900309BB2F2
:1048E0005B429BB21BB202E0784BB3F90030764AD0
:1048F0009381754BB3F90420734B1A80724BB3F953
:104900000620714B5A80704BB3F906309AB26E4B49
:10491000B3F90C309BB213449BB21AB26A4BDA80E3
:10492000694BB3F904309AB2674BB3F90A309BB2C2
:1049300013449BB21AB2644B9A80002000F080FBB3
:10494000614BB3F906301A465F4B1B891344604A2A
:10495000128A9342C0F285805B4BB3F904301A4649
:10496000594B1B8913445A4A9289934279DB564B1F
:10497000B3F904301A46544B1B89D31A544AD289CE
:1049800093426EDC504BB3F90C30002B07DC514BDB
:10499000B3F900309BB25B429BB21BB202E04D4BBD
:1049A000B3F90030484A9381474BB3F90C309BB2BE
:1049B0005B429BB21AB2444B9A81434BB3F9063027
:1049C0009AB2414BB3F90C309BB213449BB21AB26A
:1049D0003D4BDA803C4BB3F904301A463C4BDB8943
:1049E0001E3BD31ADA0F13445B101AB2364B5A81AE
:1049F000344B00221A70384B1B78012B40F0448155
:104A0000364B1B8801339AB2344B1A802E4BB3F9C4
:104A10000A30002B40F0388104F010FF0246304B82
:104A200083FB0231D317C91A0B465B000B44D11A22
:104A30000B46FB8004F002FF0346002B03F001034A
:104A4000B8BF5B42BB80B7F90430002B04D0FB88B1
:104A50005B429BB21BB201E0B7F906301A4A5381A0
:104A600012E1194BB3F906301A46174B1B89D31ABA
:104A70001C4A128A934200F39980134BB3F9043015
:104A80001A46114B1B891344164A92899342C0F26D
:104A90008D800D4BB3F904301A460B4B1B89D31A8A
:104AA000104AD289934200F38180074BB3F90C304E
:104AB000002B19DC074BB3F900309BB25B429BB271
:104AC0001BB214E0BC060020840600200C0000206D
:104AD000540600200A000020C4060020BE06002064
:104AE000565555556C0600206B4BB3F900306B4A98
:104AF00093816A4BB3F90C309BB25B429BB21AB202
:104B0000664B9A81654BB3F906309AB2634BB3F9A1
:104B10000C309BB213449BB21AB2604BDA805F4BED
:104B2000B3F904301A465E4BDB891E3BD31ADA0F09
:104B300013445B101AB2594B5A815A4B00221A7017
:104B4000594B1B78012B40F0A180584B1B88013337
:104B50009AB2564B1A80514BB3F90A30002B40F0F1
:104B6000958004F06BFE0246514B83FB0231D31754
:104B7000C91A0B465B000B44D11A0B467B8004F02C
:104B80005DFE0346002B03F00103B8BF5B423B8090
:104B9000B7F90030002B04D07B885B429BB21BB27C
:104BA00001E0B7F902303D4A53816FE03B4BB3F966
:104BB00006301A46394B1B891344F02B08DC374B5F
:104BC000B3F906301A46354B1B89D31A002B2FDA5E
:104BD000324BB3F906301A46304B1B891344F02B85
:104BE0000CDD304B01221A702D4B9B8A01339AB297
:104BF0002B4B9A822F4B02221A700BE0294B012279
:104C00001A702D4B9B8A01339AB22B4B9A82294BF7
:104C100001221A70244B1B78012B02D1254B032251
:104C20001A701E4B78229A801C4B7822DA802EE074
:104C30001A4BB3F904301A46184B1B89D31A002BB0
:104C400008DD164BB3F904301A46144B1B89134484
:104C5000EF2B1CDD114BB3F90A309BB25B429BB2C8
:104C60001AB20E4B5A810D4BB3F904309AB20B4B6A
:104C7000B3F90A309BB213449BB21AB2074B9A8025
:104C8000012000F0DDF902E000BF00E000BF00BF3E
:104C90000837BD4680BD00BF0A0000208406002002
:104CA0006C060020BC060020C4060020BE060020C2
:104CB00056555555C00600205406002090B585B0C5
:104CC00002AF78607B68B3F91230002B50DD7B684F
:104CD0009A897B68B3F912309BB2D31A9BB218B28F
:104CE0007B681B8A023B9BB219B27B689B89013BA4
:104CF0009BB21AB27B681B8A023B9BB21BB2002498
:104D0000009401F06DFE7B689A897B68B3F91230DC
:104D10009BB2D31A9BB218B27B681B8A013B9BB231
:104D200019B27B689B89013B9BB21AB27B681B8AD4
:104D3000013B9BB21BB20024009401F051FE7B6842
:104D40009A897B68B3F912309BB2D31A9BB218B21E
:104D50007B681B8A19B27B689B89013B9BB21AB2A4
:104D60007B681B8A1BB20024009401F039FE4FE0DF
:104D70007B68DB8901339BB218B27B681B8A023BDC
:104D80009BB219B27B68DA897B68B3F912309BB2A7
:104D9000D31A9BB21AB27B681B8A023B9BB21BB22E
:104DA0000024009401F01CFE7B68DB8901339BB278
:104DB00018B27B681B8A013B9BB219B27B68DA8907
:104DC0007B68B3F912309BB2D31A9BB21AB27B68DC
:104DD0001B8A013B9BB21BB20024009401F000FE31
:104DE0007B68DB8901339BB218B27B681B8A19B2DE
:104DF0007B68DA897B68B3F912309BB2D31A9BB215
:104E00001AB27B681B8A1BB20024009401F0E8FDF3
:104E10007B689B8918B27B681B8A023B9BB219B2E4
:104E20007B68DB891AB27B681B8A023B9BB21BB290
:104E30004FF6FF74009401F0D3FD7B689B8918B294
:104E40007B681B8A013B9BB219B27B68DB891AB273
:104E50007B681B8A013B9BB21BB24FF6FF74009428
:104E600001F0BEFD7B689B8918B27B681B8A19B272
:104E70007B68DB891AB27B681B8A1BB24FF6FF7412
:104E8000009401F0ADFD00BF0C37BD4690BD0000A1
:104E900080B500AF114BB3F90000104BB3F902100D
:104EA0000E4B1B891AB2002301F0C0FC0B4BB3F967
:104EB00004000A4BB3F90610084B1B891AB24FF6CF
:104EC000FF7301F0B3FC0648FFF7F8FE0548FFF753
:104ED000F5FE02F0BDFF00BF80BD00BF84060020CC
:104EE000540600206C06002080B58EB002AF034649
:104EF000FB80354B1B78002B28D1344B9B8A1A46FC
:104F000007F12C033249184604F098FD07F12C02F2
:104F100000230193FB8800932E4BB421782001F0ED
:104F2000A5F92D4B9B8A1A4607F12C0328491846F0
:104F300004F084FD07F12C0200230193FB88009309
:104F4000244B3C21782001F091F938E007F10C0363
:104F50002249184604F072FD07F10C020023019368
:104F60004FF4784300931B4B3C213C2001F07EF929
:104F70001B4B1B881A4607F10C031A49184604F00C
:104F80005DFD07F10C02002301934FF4FC630093D5
:104F9000104B6B213C2001F069F907F10C03124919
:104FA000184604F04BFD07F10C02002301934FF665
:104FB000FF7300930D4B9621282001F057F900BF95
:104FC0003037BD4680BD00BFC40600205406002017
:104FD000D0AC000804F700086C060020D4AC000830
:104FE000BE060020E0AC0008ECAC0008142B010861
:104FF00080B483B000AF78607B68002B01D10023C0
:1050000008E07B684FF47A7202FB03F3044A92FBD8
:10501000F3F3013B18460C37BD4680BC704700BF18
:105020000090D00380B400AF044B1B681B680022C3
:105030009A6200BFBD4680BC704700BFC806002012
:1050400080B582B000AF78607B68012B03D07B68AD
:10505000022B07D00DE00C4B1B6800211846FBF714
:1050600077F90DE0084B1B6800211846FBF712FA90
:1050700006E0054B1B6800211846FBF70BFA00BF42
:1050800000BF0837BD4680BDC806002090B5C9B036
:1050900002AF07F58C73A3F58A7318601F230522EE
:1050A0000A210A2001F0DCFA4FF478430522E621B8
:1050B000E62001F0D5FA0023A7F810310023A7F865
:1050C00000310023A7F8F03007F58C73A3F58A733D
:1050D0001B681B8AEF2B7AD87823A7F816313C235C
:1050E000A7F814310523A7F812311423A7F81031BB
:1050F000B7F81631143BA7F80E31B7F81631A7F8F8
:105100000C31B7F81421B7F81231D31A9AB2B7F8A4
:1051100010315B089BB2D31AA7F80A31B7F81421F3
:10512000B7F81231D31A9BB2053BA7F80831B7F88C
:105130001631A7F80631B7F816311433A7F8043141
:10514000B7F81421B7F81231D31A9BB2053BA7F870
:105150000231B7F81421B7F81231D31A9AB2B7F85E
:1051600010315B089BB2D31AA7F80031B7F80E31A3
:10517000A7F8FE30B7F80C31A7F8FC30B7F80A21D1
:10518000B7F81031D31A9BB20A3BA7F8FA30B7F838
:105190000821B7F81031D31AA7F8F830B7F806315C
:1051A000A7F8F630B7F80431A7F8F430B7F80221C1
:1051B000B7F81031D31AA7F8F230B7F80021B7F8D2
:1051C0001031D31A9BB20A3BA7F8F03079E078236C
:1051D000A7F81631B423A7F814310523A7F8123124
:1051E0001423A7F81031B7F81631143BA7F80E3185
:1051F000B7F81631A7F80C31B7F81421B7F8123107
:1052000013449AB2B7F810315B089BB21344A7F865
:105210000A31B7F81421B7F8123113449BB20533A1
:10522000A7F80831B7F81631A7F80631B7F81631E4
:105230001433A7F80431B7F81421B7F81231134426
:105240009BB20533A7F80231B7F81421B7F8123131
:1052500013449AB2B7F810315B089BB21344A7F815
:105260000031B7F80E31A7F8FE30B7F80C31A7F8C7
:10527000FC30B7F80A21B7F8103113449BB20A3357
:10528000A7F8FA30B7F80821B7F810311344A7F897
:10529000F830B7F80631A7F8F630B7F80431A7F8B8
:1052A000F430B7F80221B7F810311344A7F8F23000
:1052B000B7F80021B7F8103113449BB20A33A7F8AE
:1052C000F030B7F91601B7F91411B7F912214FF6FA
:1052D000FF7301F0C5F907F58C73A3F58A731B689A
:1052E0001B8AEF2B1ED8B7F91601B7F81421B7F8AF
:1052F0001231D31A9BB219B2B7F91641B7F814217B
:10530000B7F81231D31A9AB2B7F81031D31A9BB248
:10531000053B9BB21BB24FF6FF720092224601F092
:105320005FFB1DE0B7F91601B7F81421B7F8123189
:1053300013449BB219B2B7F91641B7F81421B7F864
:10534000123113449AB2B7F8103113449BB20533AB
:105350009BB21BB24FF6FF720092224601F040FB57
:10536000B7F90E01B7F90A11B7F90C21B7F90831ED
:105370004FF6FF74009401F033FBB7F90601B7F95B
:105380000211B7F90421B7F900314FF6FF74009408
:1053900001F026FBB7F9FE00B7F9FA10B7F9FC20C7
:1053A000B7F9F8304FF6FF74009401F019FBB7F924
:1053B000F600B7F9F210B7F9F420B7F9F0304FF66C
:1053C000FF74009401F00CFB824A07F18003114640
:1053D0005822184604F071FC7F4A07F12803114651
:1053E0005822184604F069FC0023C7F8E430002373
:1053F000C7F8E0300023C7F8EC301623C7F8DC30DC
:105400000023C7F8D830754B1B6800211846FAF7FF
:105410009FFF0023C7F8E83097E0B7F90E01B7F90E
:105420000A11B7F90C21B7F908310024009401F0F2
:10543000D7FAB7F90601B7F90211B7F90421B7F99C
:1054400000310024009401F0CBFAD7F8E83003F0E3
:105450000103002B0AD1B7F80A310A33A7F80A3141
:10546000B7F800310A33A7F8003109E0B7F80A317C
:105470000A3BA7F80A31B7F800310A3BA7F8003118
:10548000B7F90E01B7F90A11B7F90C21B7F90831CC
:105490004FF6FF74009401F0A3FAB7F90601B7F9CB
:1054A0000211B7F90421B7F900314FF6FF740094E7
:1054B00001F096FAD7F8E8309B0003F58C733B4473
:1054C00053F8982C13465B0013441846FFF790FDE1
:1054D000C7F8E400D7F8E8309B0003F58C733B4431
:1054E00053F8F03C4FF47A7292FBF3F3C7F8E030D4
:1054F000D7F8D830002B11D0D7F8E8309B00D7F878
:10550000D82013441A68D7F8E8309B0003F58C7351
:105510003B4453F8F03CD31AC7F8EC302F4B1B68D0
:105520001B68D7F8E4209A62D7F8E0301846FCF7F9
:1055300025F9FFF777FDD7F8EC301846FCF71EF990
:10554000D7F8E8300133C7F8E830D7F8E820D7F8C3
:10555000DC309A42FFF661AF204B1B6800211846F1
:10556000FAF798FF4FF4FA70FFF742FD02461B4B23
:105570001B681B689A6207F58C73A3F58A731A6817
:1055800007F108031649184604F058FA07F1080213
:10559000002301934FF6FF730093124B78213620BE
:1055A00000F064FE07F108030F49184604F046FABC
:1055B00007F10802002301934FF6FF7300930B4B92
:1055C0009621282000F052FE00BF07F58E77BD46D9
:1055D00090BD00BF0CAD000864AD0008C8060020F7
:1055E00004AD0008E4AE0008ECAC0008142B010880
:1055F00080B500AF002000F09DFF02F029FC00BF45
:1056000080BD000080B588B002AF4FF6FF730093F5
:10561000502300222821002001F0E2F94FF6FF7309
:105620000093502301222821012001F0D9F94FF6DF
:10563000FF7300933C23F0221421F02001F0D0F9F5
:105640004FF6FF7300933C23EF221421EF2001F06B
:10565000C7F94FF6FF7305223C213C2001F0E6F824
:105660004FF6FF7300936E23F0226E21002001F0AD
:10567000B7F94F4B1B7C002B21D14D4B1A7C4D4B66
:105680001B7C9A421BD04C4B1B78002B07D14B4BF9
:1056900001221A70FFF7ACFFFEF780FF84E0464B53
:1056A0001B78012B05D1454B02221A70FFF7A0FF92
:1056B0007AE0414B1B78022B01D1FFF799FF3C4B5D
:1056C0009B7B002B10D13A4B9A7B3A4B9B7B9A42A7
:1056D0000AD0394B1B78012B1AD8374B1B78013372
:1056E000DAB2354B1A7013E0314B5B7B002B0FD1D4
:1056F0002F4B5A7B2F4B5B7B9A4209D02E4B1B784A
:10570000002B05D02C4B1B78013BDAB22A4B1A70C8
:105710002B4A07F10C0392E8030018600433198048
:1057200000237B6110E0244B1B781A467B6993426F
:1057300007D17B695B0018333B444FF6E07223F8D6
:105740000C2C7B6901337B617B69022BEBDD3B46D3
:105750001C49184604F072F9BB893A4600210191B0
:105760000093194B82213C2000F080FD3B461749F5
:10577000184604F063F9FB893A4600210191009331
:10578000114B96213C2000F071FD3B461049184614
:1057900004F054F93B8A3A460021019100930A4BE8
:1057A000AA213C2000F062FD1837BD4680BD00BF35
:1057B00094060020A8060020C2060020C106002092
:1057C000DCAD0008BCAD0008E4AE0008C8AD0008C0
:1057D000D0AD000880B592B002AF9B4B9B7B002BF5
:1057E00013D1994B9A7B994B9B7B9A420DD0984B46
:1057F0001B78002B20D1964B1B780133DAB2944BE7
:105800001A70944B01221A7016E08F4B5B7B002BB1
:1058100012D18D4B5A7B8D4B5B7B9A420CD08C4BBB
:105820001B78002B08D08A4B1B78013BDAB2884BDF
:105830001A70884B01221A70834B1B7C002B31D1CC
:10584000814B1A7C814B1B7C9A422BD0804B1B785E
:10585000002B11D17F4B01221A707F4B1B78022B3A
:1058600003D17D4B00221A702FE07B4B1B78013354
:10587000DAB2794B1A7028E0754B1B78012B24D1D2
:10588000744B01221A70754B1B78012B03D1734B9B
:1058900000221A7019E0714B1B780133DAB26F4B9A
:1058A0001A7012E0684BDB7B002B0FD1664BDA7B62
:1058B000664BDB7B9A4209D0664B01221A70684B1B
:1058C00000221A70FFF794FE07E100BF614B1B78BE
:1058D000002B00F00281634B1B687B630023FB639A
:1058E00010E05B4B1B781A46FB6B934207D1FB6BB6
:1058F0005B0040333B444FF6E07223F80C2CFB6B0B
:105900000133FB63FB6B012BEBDD07F114035649FD
:10591000184604F093F807F11402002301934FF6A0
:10592000FF730093514B0A213C2000F09FFC07F1CC
:1059300014034F49184604F081F8BB8E07F1140296
:105940000021019100934B4B50213C2000F08EFC34
:105950004FF6E0737B87404B1B78022B19D0022B4C
:1059600021DC002B02D0012B0AD01CE007F114032C
:105970004149184604F062F84FF4FC637B871AE053
:1059800007F114033D49184604F058F81F237B879C
:1059900011E007F114033A49184604F04FF84FF4A8
:1059A00078437B8707E007F114033649184604F073
:1059B00045F81F237B873B463349184604F03EF8E1
:1059C0003A4600230193002300932A4B6E21542072
:1059D00000F04CFC07F11402002301937B8F00932D
:1059E000244B6E21542000F041FC07F11403274999
:1059F000184604F023F8FB8E07F1140200210191F0
:105A000000931C4B8C213C2000F030FC4FF4784379
:105A10003B87124B1B78002B02D0012B0AD03BE0B6
:105A200007F114031A49184604F008F84FF47843B4
:105A30003B873AE007F114031649184603F0FEFFCE
:105A40004FF4FC633B8730E094060020A80600205A
:105A5000C30600200F0000200E000020C406002016
:105A6000C10600204CAE0008E4AD0008F4CE0008EA
:105A7000F0AD0008E4AE000800AE000808AE000873
:105A800010AE000818AE000820AE000830AE0008C6
:105A90003CAE000844AE000807F114031049184654
:105AA00003F0CCFF4FF478433B873A460023019341
:105AB000002300930B4BAA21542000F0D7FB07F1E1
:105AC0001402002301933B8F0093064BAA2154201C
:105AD00000F0CCFB044B00221A704037BD4680BD5D
