:020000040801F1
:100000000050002015270108CF220108D122010845
:10001000D3220108D5220108D722010800000000E0
:10002000000000000000000000000000D1490108AD
:10003000D922010800000000614A0108A54A010810
:100040005D2701085D2701085D2701085D2701087C
:100050005D2701085D2701085D2701085D2701086C
:100060005D2701085D2701085D2701085D2701085C
:100070005D270108DD2201085D2701085D270108D1
:100080005D2701085D2701085D2701085D2701083C
:100090005D2701085D2701085D2701085D2701082C
:1000A0005D2701085D2701085D2701085D2701081C
:1000B000E92201085D2701085D2701085D27010885
:1000C0005D2701085D2701085D2701085D270108FC
:1000D0005D2701085D2701085D2701085D270108EC
:1000E0005D2701085D2701085D2701080000000069
:1000F0000000000000000000000000000000000000
:0C01000000000000000000005FF808F1A3
:1001100010B5054C237833B9044B13B10448AFF341
:1001200000800123237010BD80000020000000002B
:10013000746A010808B5034B1BB103490348AFF3C8
:10014000008008BD0000000084000020746A0108DF
:10015000014B024A9A60704700ED00E00000010880
:10016000036A026A70B522F0010202624468826981
:100170000D6822F073022A438D6823F002032B439B
:100180000A4DA8420BD1CD6823F008032B4324F479
:100190004074D1E90556354323F004032C434460F1
:1001A00082614A684263036270BD00BF002C014057
:1001B000036A026A70B522F4807202624468C269FE
:1001C0000D6822F073022A438D6823F4007343EA1A
:1001D00005230B4DA8420DD1CD6823F4006343EAFB
:1001E000052324F44054D1E90556354323F48063B4
:1001F00044EA05144460C2614A68C263036270BD88
:10020000002C0140036A026A30B522F48052026277
:100210004468C2690D6822F4E64242EA05228D680C
:1002200023F4005343EA0533064DA84202BF4D694B
:1002300024F4804444EA85144460C2614A6802643C
:10024000036230BD002C01407047000090F83D3043
:10025000012B20D1022380F83D300368DA6842F098
:100260000102DA600D4A93420AD0B3F1804F07D001
:10027000A2F59432934203D002F58062934204D1F6
:100280009A6802F00702062A03D01A6842F00102B7
:100290001A60002070470120704700BF002C014009
:1002A0007047704770477047036870B5DD681E6916
:1002B0000446B1070DD5AA070BD56FF002021A61EB
:1002C000012202779B699B0769D0FFF7EAFF0023B1
:1002D0002377710710D56A070ED56FF004022368E3
:1002E00020461A61022222779B6913F4407F5CD07A
:1002F000FFF7D7FF0023237733070FD528070DD546
:100300006FF00802236820461A6104222277DB6915
:10031000990750D0FFF7C5FF00232377F20610D5C9
:10032000EB060ED56FF01002236820461A610822F2
:100330002277DB6913F4407F43D0FFF7B2FF00233D
:100340002377F00708D5E90706D56FF00102236887
:1003500020461A6101F0B2FF320608D52B0606D5F9
:100360006FF08002236820461A6100F02EFA7006B2
:1003700008D5690606D56FF04002236820461A6149
:10038000FFF791FFB20622D5AB0620D56FF0200211
:1003900023682046BDE870401A6100F015BAFFF7E7
:1003A0007FFF2046FFF77EFF91E7FFF779FF2046AA
:1003B000FFF778FF9EE7FFF773FF2046FFF772FF16
:1003C000AAE7FFF76DFF2046FFF76CFFB7E770BDA8
:1003D000174A036890420AD0B0F1804F07D0A2F5C7
:1003E0009432904203D002F58062904207D14A686D
:1003F00023F070031343CA6823F4407313434A691C
:1004000023F08003134303608B68C3620B6883622D
:10041000074B984204BF0B690363012343610369DF
:10042000DB0742BF036923F001030361704700BF8C
:10043000002C014010B5044630B390F83D3003F075
:10044000FF021BB980F83C20FFF7FEFE0223206864
:1004500084F83D30211DFFF7BBFF0123002084F805
:10046000463084F83E3084F83F3084F8403084F8D9
:10047000413084F8423084F8433084F8443084F8C2
:10048000453084F83D3010BD0120FCE710B504462E
:1004900030B390F83D3003F0FF021BB980F83C20E8
:1004A00001F0EEFF0223206884F83D30211DFFF7A4
:1004B0008FFF0123002084F8463084F83E3084F812
:1004C0003F3084F8403084F8413084F8423084F87A
:1004D000433084F8443084F8453084F83D3010BD12
:1004E0000120FCE7036A026A70B522F01002026282
:1004F000446882690D6822F4E64242EA05228D686A
:1005000023F0200343EA05130B4DA8420DD1CD681B
:1005100023F0800343EA051324F44064D1E905562F
:10052000354323F0400344EA8504446082614A680D
:100530008263036270BD00BF002C014038B590F8A3
:100540003C300446012B4FD00120082A84F83C009F
:100550003AD006D8BAB1042A26D0002384F83C3019
:1005600038BD0C2AF9D12068FFF74CFEC3690A692F
:1005700043F40063C361C36923F48063C361C36947
:1005800043EA02232EE02068FFF7EAFD83690A6947
:1005900043F008038361836923F004038361836963
:1005A000134383610020D8E72068FFF79BFF83692E
:1005B0000A6943F400638361836923F48063836180
:1005C000836943EA0223ECE72068FFF7F1FDC36982
:1005D0000A6943F00803C361C36923F00403C361DC
:1005E000C3691343C361DDE70220B9E710B50124F5
:1005F000036A01F01F018C4023EA04030362036ACB
:100600008A401A43026210BD08B529B990F83E30FD
:10061000012B1DD001202EE0042907D190F83F3096
:10062000012BF7D1022380F83F3014E0082907D1CD
:1006300090F84030012BEDD1022380F840300AE0E1
:1006400090F84130012BE5D1022380F8413002E0DF
:10065000022380F83E3000680122FFF7C7FF0F4BEE
:10066000984209D0B0F1804F0BD1836803F00703A3
:10067000062B0DD1002008BD436C43F400434364B6
:10068000F3E7074B9842F0D003F580639842ECD033
:10069000036843F001030360ECE700BF002C014056
:1006A00000040040FFF7B0BF38B5002204460068E0
:1006B0000D46FFF79BFF184B98420DD141F21113E5
:1006C000026A1A4208D140F24443026A1A4202BF47
:1006D000436C23F40043436441F21113026A1A424B
:1006E00008D140F24443026A1A4202BF036823F071
:1006F0000103036001231DB984F83E30002038BD9A
:10070000042D02D184F83F30F8E7082D0CBF84F89F
:10071000403084F84130F1E7002C0140FFF7C4BFBE
:1007200030B590F83C300246012B4FF0020022D049
:10073000136882F83D005C680D6824F070042C4357
:1007400098685C600C4CA3420AD0B3F1804F07D08C
:10075000A4F59434A34203D004F58064A34204D1E9
:10076000496820F08000014399600123002082F84D
:100770003D3082F83C0030BD002C014090F83C3008
:100780000246012B1ED0CB68886823F440730343D4
:10079000486823F480630343086823F40063034339
:1007A000086923F480530343486923F40053034347
:1007B0000020C96923F480430B4311684B6482F81D
:1007C0003C0070470220704770477047F7B500261D
:1007D00004460D46019600F07FFA236807469A68A2
:1007E000D10508D50120A36A84F8246043F02003D2
:1007F000A36203B0F0BD5A68D20503D4DB6A13F4D8
:10080000700F3DD03D4B02201E6800F093FD236821
:100810003B4A1969B6FBF0F611423A4A51D1D86801
:10082000394908424DD1196911425BD1DA68374B19
:100830001A420CBF142329235E43019BB34223D2E7
:100840006A1C04D0002D53D1019BB3420AD3019BF3
:1008500001330193F1E76E1C13D065B923681B685F
:1008600098070DD4A36A032043F00403A362002376
:1008700084F82430BDE700F02FFAC01BA842EDD861
:10088000226813689907E6D56FF012032268136097
:10089000A36A43F40073A362936803F46023B3F57F
:1008A000602F0CD1237B53B9A36A23F48073A36216
:1008B000A36ADB0403D4A36A43F00103A36200200C
:1008C00097E71969114203D1D968104A11420BD038
:1008D00019690F4A114209D1DB6813420CBF542336
:1008E000FC23A9E72923A7E75423A5E7FC23A3E7D3
:1008F00000F0F2F9C01BA842A6D8A8E7000000202B
:1009000024499224922449122449920092244900B5
:10091000499224000368D86C70470000002373B527
:10092000019390F824300446012B6CD0012380F809
:1009300024304D680268062D086805EB850322D82F
:100940001F26556B053B9E4025EA060500FA03F37A
:100950002B43536309288B6800EB40054FF00701D8
:1009600029D9D6681E3DA94026EA0101AB400B43B8
:10097000D360A0F11003012B25D90020002384F8B7
:10098000243002B070BD0C2D4FF01F0509D8166B36
:10099000233B9D4026EA050500FA03F32B4313632E
:1009A000D8E7D66A413B9D4026EA050500FA03F3E5
:1009B0002B43D362CEE71069A94020EA0101AB4086
:1009C0000B431361D9E7114B9A4216D193681B026E
:1009D000D3D49368102843F400039360CDD10C4B1B
:1009E0000C4A1B68B3FBF2F30A2253430193019BA9
:1009F000002BC2D0019B013BF8E7A36A012043F022
:100A00002003A362BAE70220BBE700BF0024014035
:100A10000000002040420F00002337B50193036817
:100A200004469A68D20702D5002003B030BD9A6808
:100A300042F001029A60144B144A1B68B3FBF2F3B4
:100A40000193019BE3B900F047F9054623689B68D1
:100A5000DB07E9D400F040F9401B0228F6D92368EF
:100A60009B6813F00103F1D1A26A012042F0100249
:100A7000A262E26A84F8243042F00102E262D4E722
:100A8000019B013BDCE700BF0000002040420F005B
:100A900010B590F824300446012B54D0012380F87F
:100AA0002430FFF7B9FF002849D1A36A274A23F46D
:100AB000407323F0010343F48073A36223689342DD
:100AC00004D123494A6812F4702F2ED1A26A22F46D
:100AD0008012A2625A68520541BFA26A22F44052B3
:100AE00042F48052A262A26A12F480521CBFE26AEF
:100AF00022F00602E262002284F824206FF0020253
:100B00001A609A6802F46022B2F5602F13D10F4A7E
:100B1000934205D1A2F58062526812F4702F0AD177
:100B20009A6842F4A0029A6010BDA26A42F4801250
:100B3000A2624A68CFE79A6842F48012F3E7002382
:100B400084F82430F0E70220EEE700BF00280140DF
:100B50000024014038B5036804469A68D10701D4DF
:100B6000002038BD9A6822F001029A6000F0B4F8C3
:100B7000054623689B68DB07F2D500F0ADF8401B03
:100B80000228F6D923689B68DA07F2D5A36A012008
:100B900043F01003A362E36A43F00103E362E0E77A
:100BA000F8B5044600286DD0836A23B9C36280F883
:100BB000243001F0C1FB2046FFF7CCFFA36A13F0FD
:100BC000100361D100285FD1A26A616822F48852C3
:100BD00022F0020242F00202E569A668A262227BCC
:100BE0002943B6F5807F41EA420136D0771E7D4227
:100BF0007D412D02277D012F06D182BBA269013ADA
:100C000045EA423242F400652268B6F5807F5768B3
:100C100027F4694745EA0705556097681D4D05EAC1
:100C2000070545EA0105956001D0012E02D123692F
:100C3000013B1B05D56A25F470052B43D3629268EE
:100C4000154B1340994213D10023E362A36A23F0AA
:100C5000030343F00103A362F8BD3546CAE7A26A65
:100C600042F02002A262E26A42F00102E262CBE7B5
:100C7000A36A23F0120343F01003A362E36A43F074
:100C80000103E3620120E7E7A36A43F01003A362D4
:100C9000F8E700BFFDF7E1FFFE0E1FFF074A08B5AA
:100CA0001368032043F01003136000F085FD0F204C
:100CB00001F08CFC01F01EFB002008BD002002406A
:100CC000034A044B11681B780B441360704700BF44
:100CD0009C00002004000020014B1868704700BFF2
:100CE0009C00002038B50446FFF7F6FF0546631C5C
:100CF0001EBF044B1B78E418FFF7EEFF431BA34213
:100D0000FAD338BD040000202DE9F341054638B37D
:100D10000368DB0710D42B689F075ED42B68190784
:100D200000F195802B685A0700F1C180EB69002B18
:100D300040F02C81002029E0904C636803F00C0304
:100D4000042B07D0636803F00C03082B0AD16368F7
:100D5000DE0307D523689C03DDD56B68002BDAD151
:100D6000012013E06B68B3F5803F12D1236843F490
:100D700080332360FFF7B0FF064623689803CAD488
:100D8000FFF7AAFF801B6428F7D9032002B0BDE853
:100D9000F0819BB9236823F480332360236823F414
:100DA00080232360FFF798FF064623689903B2D596
:100DB000FFF792FF801B6428F7D9E6E7B3F5A02F71
:100DC000236803D143F480232360CFE723F48033E7
:100DD0002360236823F48023CBE7684C636813F017
:100DE0000C0F07D0636803F00C03082B10D1636865
:100DF000DA030DD423689B0702D52B69012BAFD1F1
:100E000023686A6923F0F80343EAC203236085E795
:100E10002A695B4B6AB101221A60FFF75DFF064643
:100E200023689F07ECD4FFF757FF801B0228F7D9F0
:100E3000ABE71A60FFF750FF0646236898077FF577
:100E40006DAFFFF749FF801B0228F6D99DE7AA691D
:100E50004A4E4B4BE2B10122C3F88024FFF73CFF1E
:100E60000446736A9B070DD54FF4FA52454B1B6835
:100E7000B3FBF2F3019300BF019B5A1E0192002BBA
:100E8000F9D14FE7FFF728FF001B0228E9D97CE7DB
:100E9000C3F88024FFF720FF0446736A9F077FF59D
:100EA00041AFFFF719FF001B0228F6D96DE7334C5D
:100EB000E369D80024D40127E36943F08053E36158
:100EC000E36903F080530093009B2F4E3368D905EC
:100ED00018D5EB68012B26D1236A43F00103236266
:100EE000FFF7FAFE41F288380646236A9B073FD592
:100EF000002F3FF41BAFE36923F08053E36115E754
:100F00000027E2E7336843F480733360FFF7E4FEC1
:100F100080463368DA05DCD4FFF7DEFEA0EB08007C
:100F20006428F6D931E7ABB9236A41F2883823F057
:100F300001032362236A23F004032362FFF7CCFE3C
:100F40000646236A9807D3D5FFF7C6FE801B4045A7
:100F5000F7D91AE7052B236A03D143F00403236270
:100F6000BAE723F001032362236A23F00403B6E700
:100F7000FFF7B2FE801B4045B7D906E700100240DC
:100F80000000424200000020007000402A4C6268CD
:100F900002F00C02082A3ED00022022B274B1A66D0
:100FA0002CD1FFF799FE06462368990120D42B6ABD
:100FB000B3F5803F05D16268A96822F400320A4384
:100FC0006260696A62680B4322F47412134301225F
:100FD00063601A4B1A66FFF77FFE054623689A0185
:100FE0003FF5A8AEFFF778FE401B0228F6D9CCE605
:100FF000FFF772FE801B0228D6D9C6E6FFF76CFE0B
:10100000054623689B017FF595AEFFF765FE401B03
:101010000228F6D9B9E6012B3FF4A2AE60682B6A2C
:1010200000F480329A427FF49BAE6B6A00F4701039
:10103000C01A18BF0120A9E6001002400000424279
:101040000D4A536803F00C01082912D10B48C3F371
:101050008341DB03405C09D55368094AC3F340432D
:101060005043084AD35CB0FBF3F07047064B58433B
:1010700070470348704700BF00100240666B0108CC
:1010800000127A00646B010800093D002DE9F0416F
:101090000D46044610B90120BDE8F081444A1368AA
:1010A00003F007038B4228D321688E0730D4CA0788
:1010B00043D43F4A136803F00703AB4265D8226864
:1010C0003C4D12F0040F6CD1130706D56B682269F2
:1010D00023F4605343EAC2036B60FFF7B1FF6B6810
:1010E000354AC3F30313D35CD840344B1860344BF8
:1010F000186801F06BFA0020CEE7136823F00703AD
:101100000B431360136803F007038B42C3D1CBE793
:10111000284B11F0040F1EBF5A6842F4E0625A6077
:10112000080742BF5A6842F460525A605A68A06881
:1011300022F0F00202435A60B9E762681D4E012AAC
:1011400033681AD113F4003FA5D0736841F2883890
:1011500023F0030313437360FFF7BEFD0746736874
:10116000626803F00C03B3EB820FA2D0FFF7B4FD6B
:10117000C01B4045F3D903208EE7022A02D113F0A9
:10118000007FE1E713F0020FDEE7136823F00703A7
:101190002B431360136803F00703AB427FF47BAF6C
:1011A0008DE76B68E16823F4E0630B436B608BE7CA
:1011B0000020024000100240546B01080000002093
:1011C00008000020044B054A5B68C3F30223D35C8C
:1011D000034A1068D8407047001002404C6B010869
:1011E00000000020044B054A5B68C3F3C223D35CB4
:1011F000034A1068D8407047001002404C6B010849
:10120000000000200F2303600B4B5A6802F003021A
:1012100042605A6802F0F00282605A6802F4E062AA
:10122000C2605B68DB0803F4E0630361034B1B6887
:1012300003F007030B6070470010024000200240DB
:1012400003682DE9F3410546D80721D5364CE369FB
:10125000D9002BD40126E36943F08053E361E369AD
:1012600003F080530193019B304F3B68DA051FD593
:10127000236A6A6813F440732ED1236A6A6823F4E0
:101280004073134323621EB1E36923F08053E3618B
:101290002A68910706D52449A8684B6823F440437F
:1012A00003434B60D30636D4002012E00026DBE770
:1012B0003B6843F480733B60FFF70EFD80463B685C
:1012C000DB05D5D4FFF708FDA0EB08006428F6D9AC
:1012D000032002B0BDE8F08102F440729A42CCD003
:1012E0000120134A236AC2F84004002023F440710D
:1012F000DF07C2F840042162BFD5FFF7EDFC41F2E1
:1013000088380746236A9807B7D4FFF7E5FCC01B67
:101310004045F7D9DCE7044AE968536823F48003C1
:101320000B435360C0E700BF001002400070004054
:1013300000004242022808B544D0102803D00128FA
:1013400022D0002034E0254B5A68186810F08070D5
:101350002ED0C2F383412248D20348BF5A68405C72
:1013600041BF2049C2F34042895C1F4A5B684CBFC1
:10137000B2FBF1F21D4A5B0202FB00F018D403231A
:101380004000B0FBF3F013E040F20231134A136A5D
:101390001940B1F5817F1ED003F44073B3F5007F8F
:1013A00007D149F64040536A13F0020F08BF0020EE
:1013B00008BDB3F5407FC4D113684FF2244013F445
:1013C000003FF3E7FFF70EFF044B5B68C3F3813385
:1013D00001335B00D5E74FF40040E9E7001002401D
:1013E000786B0108766B010800127A0000093D0055
:1013F0002DE9F74F00244FF00F0E2646DFF884C189
:10140000614B00F104080A6832FA06F502D103B014
:10141000BDE8F08F012505FA06F702EA070537EA6D
:10142000020276D14A68032A07D8013A022A00F25A
:101430008380DFE802F091969C00122A00F09480ED
:1014400069D8112A00F08A80FF2D94BF8146C146D9
:101450004FEA8602D9F8007088BF203A0EFA02FAE5
:1014600027EA0A0704FA02F21743C9F80070D1F814
:10147000049019F0805F4CD0DCF8182026F00307A8
:1014800042F00102CCF81820DCF8182007F1804760
:1014900002F00102019207F5803706F0030A019A73
:1014A0004FEA8A0ABA680EFA0AFB22EA0B0B374A9D
:1014B000904260D002F5806290425ED002F5806278
:1014C00090425CD002F58062904214BF0422032255
:1014D00002FA0AF242EA0B02BA609A6819F4801F13
:1014E00014BF2A43AA439A60DA6819F4001F14BF94
:1014F0002A43AA43DA605A6819F4003F14BF2A430A
:10150000AA435A601A6819F4803F14BF2A43AA43B9
:101510001A60013677E7DFF878904A450CD014D886
:10152000A9F580194A4507D009F570294A4503D025
:10153000A9F580194A4587D18A68D2B1012A4FF0AE
:1015400008040CBF076147617EE7DFF848904A4511
:10155000F2D009F58039EDE7CC6875E7CC68043442
:1015600072E7CC6808346FE7CC680C346CE7002471
:101570006AE7042468E70022AAE70122A8E702221A
:10158000A6E700BF0010024000040140000801402F
:1015900000002210000031108368194214BF01209E
:1015A000002070470AB1016170470904FBE70000A1
:1015B000034610B530B301681420134A0A44B2FB45
:1015C000F0F292001A64114ADA63022283F82120B1
:1015D000D3E901242243DC68086822431C696FF3C5
:1015E0000D1022435C6922439C692243DC6922433B
:1015F00002430A6000200122986383F8200083F8E8
:10160000212010BD0120FCE7F8FFFDBF00000240D3
:10161000F0B590F82040012C34D0012480F820400F
:1016200090F82140012CE5B24FF0000428D10226A9
:1016300080F8216084630468266826F0010626602D
:10164000D0E90F67BD40756063604368102BC36AC3
:101650000BBFA260A160E160E2604BB1236843F080
:101660000E0300202360236843F001032360F0BDD4
:10167000236823F004032360236843F00A03F0E7A0
:1016800080F820400220F2E770B40425C66B026C9B
:101690003468036895402542196832D04D0730D52B
:1016A0001A6896065EBF1A6822F004021A603E4A63
:1016B000934219D01432934218D01432934217D067
:1016C0001432934217D01432934217D014329342FB
:1016D00014BF4FF080634FF48003344A5360C36AF1
:1016E000002B5ED070BC18470423F6E74023F4E7D4
:1016F0004FF48063F1E74FF48043EEE74FF480232B
:10170000EBE702259540254235D08D0733D51A6881
:10171000940606D41A6822F00A021A60012280F8A0
:101720002120214A934219D01432934218D0143206
:10173000934217D01432934217D01432934217D0E9
:101740001432934214BF4FF000734FF40013174A42
:101750005360002380F82030836AC1E70223F6E754
:101760002023F4E74FF40073F1E74FF40053EEE762
:101770004FF40033EBE708259540254211D00907C7
:101780000FD5196821F00E011960012303FA02F246
:101790007260836380F82130002380F82030036B6F
:1017A0009EE770BC704700BF080002400000024086
:1017B00090F821007047000007490302CA6803F44B
:1017C000E06322F4E0621204120C134343F0BF639F
:1017D00043F40033CB60704700ED00E0154B30B5AB
:1017E000DC68C4F30224C4F10703251D042B28BFC1
:1017F0000423062D4FF0FF3594BF0024033C05FA67
:1018000003F321EA0303A54022EA0502A3400028CE
:1018100043EA0203ACBF00F16040074A4FEA0313FA
:10182000DBB2ABBF00F5614000F00F0080F8003381
:10183000135430BD00ED00E014ED00E0002807DB9C
:1018400001234109034A00F01F00834042F8213080
:10185000704700BF00E100E02DE9F3471F468946CD
:1018600090460446FFF738FA0A9D3D442D1AFFF7CB
:1018700033FA8246254B1E68C6F3CB366E4301967B
:101880002268936839EA03030CBF01230023434510
:1018900001D100202EE07B1CF3D0FFF71DFAA0EB56
:1018A0000A00A84229D323685A6822F0E0025A604D
:1018B0006268B2F5827F0AD1A268B2F5004F02D009
:1018C000B2F5806F03D11A6822F040021A60A26A52
:1018D000B2F5005F07D11A6822F400521A601A6844
:1018E00042F400521A60012384F85130002303208F
:1018F00084F8503002B0BDE8F087019A019B002ABD
:1019000003F1FF3308BF15460193B9E7000000203B
:1019100073B50B4600920D4616460221012204467D
:10192000FFF79AFF024628B1636D032043F02003BE
:10193000636507E02B46802120460096FFF78CFF69
:101940000028F1D102B070BD10B50446002851D076
:10195000436A002B4AD14268B2F5827F00D0C3614E
:101960000023A36294F8513003F0FF0223B920460C
:1019700084F8502000F032FD0223226884F85130B0
:101980001368A06823F040031360636800F4044008
:1019900003F482730343E068A16900F40060034329
:1019A000206900F002000343606900F00100034376
:1019B00001F400700343E069090C00F038000343B0
:1019C000206A01F0040100F080000343A06A00F4E3
:1019D0000050034313605160D369002023F4006377
:1019E000D3610123606584F8513010BD0023C0E944
:1019F0000433B5E70120F8E72DE9F74304461F4615
:101A00000D469046FFF768F994F851308146012B56
:101A1000D8B240F09F80002D74D0B8F1000F71D083
:101A200094F85030012B00F09580032384F8513056
:101A300000236365C4E91033A4F83680A363A38749
:101A4000E387A3682668B3F5004F84F85000256348
:101A5000A4F8348007D1336823F04003336033683F
:101A600043F4804333603368E2685B065EBF3368EB
:101A700043F040033360B2F5006F636845D113B1A2
:101A8000B8F1010F07D135F8023BF3602563E38E0F
:101A9000013B9BB2E386E38E9BB2D3B94A463946FB
:101AA0002046FFF735FF002851D1A36833B90193D1
:101AB0002368DA6801929B680193019B012384F8F3
:101AC00051300023606D84F85030C01A18BF0120D7
:101AD00018E022689368980705D5236B33F8021B3A
:101AE000D1602363D3E7FFF7F7F8A0EB0900B84212
:101AF000D1D3791CCFD0012384F8513000230320A7
:101B000084F8503003B0BDE8F08313B1B8F1010F91
:101B100008D12B783373236B01332363E38E013BAE
:101B20009BB2E386E38E9BB2002BB7D023689A6802
:101B3000920703D5226B12781A73ECE7FFF7CCF803
:101B4000A0EB0900B842EDD37B1CEBD0D3E72023F8
:101B50006365AAE70220D5E770B590F851300446D6
:101B6000012BDDB24ED1002936D0002A34D090F8B6
:101B70005030012B46D0032380F8513000234365B9
:101B8000C0E91033C28683638387C38783688286F4
:101B9000B3F5004F026880F85050016307D1136815
:101BA00023F040031360136843F48043136000265E
:101BB000A06C154B4663C362144B0C328362144B0A
:101BC0000363E38E9BB2FFF723FD38B1636D84F8A6
:101BD000506043F010036365284670BD00252368FC
:101BE0001A6852065EBF1A6842F040021A6084F812
:101BF00050505A6842F020025A605A6842F002027D
:101C00005A60E9E70225E7E7191C0108471C0108AB
:101C1000251C01087047704708B5406AFFF7FBFFB5
:101C200008BD7047406A08B50268536823F0030393
:101C30005360436D43F010034365012380F8513036
:101C4000FFF7EFFF08BD37B50546446AFFF744F8D4
:101C50002B6802461B689B0626D4236820465968D9
:101C600021F020015960596821F002015960642176
:101C7000FFF74EFE18B1636D43F020036365A36860
:101C800033B901932368DA6801929B680193019B41
:101C90000023E386012384F85130636D23B120468D
:101CA000FFF7BFFF03B030BD2046FFF7B3FFF9E7F2
:101CB00010B504460368C1681A6922F440520A4309
:101CC0001A6182680069D9680243606921F4B051E1
:101CD00021F00C0102430A43DA605A69A16922F437
:101CE00040720A435A610E4A934215D1FFF77AFABD
:101CF00019234343626820689200B3FBF2F3642225
:101D0000B3FBF2F102FB11331B013233B3FBF2F3ED
:101D100003EB0113836010BDFFF754FAE8E700BF3F
:101D20000038014010B5044648B390F8413003F044
:101D3000FF021BB980F8402000F0DEFB242322685C
:101D400084F84130D368204623F40053D360FFF772
:101D5000AFFF236800201A6922F490421A615A6981
:101D600022F02A025A61DA6842F40052DA60202333
:101D7000606484F8413084F84230606310BD012013
:101D8000FCE7000007B56B460C4CE068216904F1E4
:101D9000100503C30A4821686268A36800F00CFFBD
:101DA00028686168A268E3680090206800F054FF2A
:101DB00000F078FF212003F0A5FBF1E738040020B4
:101DC000DC04002030B595B0202200210BA803F0E0
:101DD00092FD1422102500210DEB020003F08BFD73
:101DE0002A46002101A803F086FD01230224CDE943
:101DF0000E354FF460130AA80A9411941393FEF75A
:101E000083FF08B172B6FEE70F23CDE905344FF426
:101E100080630790CDE90830214605A8FFF736F921
:101E200008B172B6FEE74FF4004301A80194039392
:101E3000FFF706FA08B172B6FEE715B030BD1FB560
:101E4000002303930123019101A90293FEF766FD8C
:101E500008B172B6FEE705B05DF804FB00232DE97A
:101E6000F04786B0CDE90033304B02AE0FCB86E8A9
:101E70000F002F4DDFF8BC80DFF8BC90B2466C46F7
:101E800000275AF8041B2846FFF7D9FF2846FEF71B
:101E9000FFFD0A212846FEF799FC2846FEF73AFD89
:101EA0000137042F24F8020BEBD1244CBDF800308D
:101EB00010212380BDF8023021486380BDF8043032
:101EC000E380BDF806302381FFF766FB39462071B9
:101ED0004046FFF761FB4FF48051A0724046FFF788
:101EE0005BFB4FF40051A0734046FFF755FB4021C8
:101EF00060734846FFF750FB802120744846FFF787
:101F00004BFB0A21E0732846FFF799FF2846FEF7AE
:101F1000BFFD0A212846FEF759FC2846FEF7FAFCC9
:101F20006082212003F0EEFAA8E700BF8C6A010866
:101F3000C0050020000C01400010014038040020C2
:101F4000000801402DE9F04F4FF0100A012502264C
:101F50009BB0DFF80483FEF7A1FEFFF733FF524684
:101F6000002112A803F0C7FCD8F81830002243EA79
:101F70000A03C8F81830D8F81830062103EA0A0313
:101F80000693069BD8F81830B44843F00403C8F809
:101F90001830D8F81830002403F004030793079B87
:101FA000D8F818304FF0200943F00803C8F818306B
:101FB000D8F81830032703F008030893089BFFF7AD
:101FC000F1FA00222021A648FFF7ECFA01224FF493
:101FD000E071A448FFF7E6FAA04812A9CDE912651E
:101FE000CDE91466FFF704FA04239C4812A9CDE951
:101FF0001235CDE91446FFF7FBF9994812A9CDE94E
:1020000012A41495FFF7F4F9954812A9CDE9129599
:10201000CDE91446FFF7ECF94FF20403914812A9F9
:10202000CDE912341495FFF7E3F9C0238B4812A9C8
:10203000CDE912341495FFF7DBF94023894812A942
:10204000CDE9123514941597FFF7D2F94FF4C07308
:10205000844812A9CDE91235CDE91457FFF7C8F924
:10206000D8F8143022462B43C8F81430D8F814306E
:102070004FF400782B4021460D200593059BFFF778
:10208000ADFB0D20FFF7DAFB77484FF48273C0E910
:10209000068A4FF00A0ADFF8D4C1C0E90244C0E959
:1020A00000C3C0E90444C0E908448462C0F82CA01D
:1020B000FFF74AFC08B172B6FEE76D4C6D4BCDE9F7
:1020C000120023604FF460231490A06020732075E9
:1020D00060602046E3612561FEF762FD08B172B6DB
:1020E000FEE70623149012A92046CDE91235FEF72B
:1020F00015FC834608B172B6FEE701461C22CDE905
:1021000009000BA803F0F7FB4A46594612A803F052
:10211000F2FBDFF86491594B4846C9E9003B42F2B3
:102120001673C9E905BBC9E9033BC9F808B0FEF756
:10213000ADF908B172B6FEE7CDE9090009A9484634
:10214000FEF7EEFA024608B172B6FEE760214FF4E0
:10215000FA73CDE90D00CDE90B13CDE90F00119015
:102160000BA94846FEF7EAF908B172B6FEE74FF44C
:102170000053CDE91200CDE914001690199012A970
:1021800048461793FEF7FAFA08B172B6FEE70390D5
:102190004FF4E13B48464FF00C0900F085F9384810
:1021A000039B384AC0E90233C0E905930361C36168
:1021B000C0E9002BFFF7B6FD034608B172B6FEE793
:1021C0003148324AC0E90233C0E9002BC0E9043982
:1021D000C0E90633FFF7A6FD834608B172B6FEE7F5
:1021E00001F0BEFA4FF4FA63DFF8A4905146A9F863
:1021F0000030A9F80230A9F80630A9F8083040F2FA
:1022000001132046A9F80C30A9F80E3089F80B50BC
:1022100089F81050FFF713FE2046FEF739FC5146AF
:102220002046FEF7D3FA2046FEF774FB5B46A9F87A
:1022300012004FF480721749CDE9006B164802F086
:1022400091FF5B4642461549CDE9007B144802F0F8
:1022500089FF02F0B9FFFEE70010024000100140C4
:1022600000080140000C01406805002000300140DA
:10227000C005002000240140DC040020002C0140A7
:1022800094040020004400404C040020004800401A
:1022900038040020886B01085D1E0108996B010855
:1022A000851D0108034B0360034B0B608023136003
:1022B000704700BFA0020020A00000200368B3F117
:1022C000804F01D1FEF7FCBC704772B6FEE7FEE717
:1022D000FEE7FEE7FEE7FEE7704700000148FFF774
:1022E000D3B900BF240500200148FDF7DDBF00BFC2
:1022F000F00500200E4B82B09A6942F001029A610B
:102300009A6902F001020092009ADA6942F0805262
:10231000DA61DB69074A03F080530193019B53683C
:1023200023F0E06343F00073536002B0704700BFD6
:102330000010024000000140102210B5044688B091
:102340000DEB0200002103F0D6FA22681F4B9A42DF
:102350003AD103F56C439A69032442F400729A61FE
:102360009A691B4802F400720092009A9A6904A9C3
:1023700042F010029A619A6902F010020192019AE9
:102380009A6942F004029A619A6902F00402029288
:10239000029A9A6942F008029A619B6903F0080365
:1023A0000393039B0123CDE90434FFF721F8C023F5
:1023B000084804A9CDE90434FFF71AF8064804A92F
:1023C000CDE90444FFF714F808B010BD0024014023
:1023D0000010014000080140000C014070B51026BB
:1023E000054686B03246002102A803F084FA2A6826
:1023F0001E4B9A4238D103F560439A691C4842F457
:1024000080529A619A6902A902F480520092009A5D
:102410009A69184C42F008029A619B69282203F0DD
:1024200008030193019B0223CDE9022303230593B3
:10243000FEF7DEFF104A2046536843F0E06343F0A6
:10244000010353600D4B8022C4E900360023C4E928
:102450000232C4E90433C4E90633FFF7A9F808B12E
:10246000FFF733FFAC64656206B070BD0030014019
:10247000000C014024050020000001403000024013
:102480000268084B82B09A420AD103F564439A6904
:1024900042F400629A619B6903F400630193019B1B
:1024A00002B07047002C014010B5044686B01022DF
:1024B000002102A803F01FFA22680D4B9A4214D1A2
:1024C00003F564439A690B4842F004029A619B69E0
:1024D0004FF4807203F004030193019B022302A9CD
:1024E000CDE902230593FEF783FF06B010BD00BFC0
:1024F000002C014000080140102210B5044688B0AD
:102500000DEB0200002103F0F6F923682A4A9342FA
:1025100027D12A4B0420DA6904A942F40032DA6197
:10252000DA69082402F400320092009A9A6942F0B3
:1025300004029A619B6903F004030193019B022347
:10254000CDE9040303231E480793FEF751FF002340
:10255000CDE904431A48069304A9FEF749FF08B0E1
:1025600010BD184A9342FAD1144B1748DA6904A9EE
:1025700042F48022DA61DA6902F480220292029A3D
:102580009A6942F008029A619B694FF4806203F0F5
:1025900008030393039B0223CDE90423032307933A
:1025A000FEF726FF4FF4006100230748CDE904132E
:1025B000069304A9D1E700BF004400400010024088
:1025C0000008014000480040000C014070B5214B5C
:1025D00088B0DA69054642F00102DA61DB6901A9D7
:1025E00003F00103029303A8029BFEF70BFE069B78
:1025F00053BBFEF7E7FD4FF08043174E336040F2C8
:10260000E733F360154BB0FBF3F3013B736000233A
:1026100030463361B360B361FDF70CFF044680B907
:102620003046FDF713FE044658B91C20FFF706F9A3
:102630000F2D0DD8224629461C20FFF7CFF8084B56
:102640001D60204608B070BDFEF7BCFD4000D2E71B
:102650000124F6E700100240F005002040420F0080
:10266000080000200B4A0346116810B509B90A4951
:102670001160106809490A4C0344091B8B4206D9B2
:1026800003F0E6F90C2303604FF0FF3010BD136038
:10269000FCE700BF38060020D821002000500020B1
:1026A000000400000120704708B503F0D1F916239B
:1026B00003604FF0FF3008BD08B503F0C9F91623D9
:1026C0000360FEE770B50D4614460E46731B9C4230
:1026D00001DC204670BDAFF3008006F8010BF5E782
:1026E00070B50D4614460E46731B9C4201DC204615
:1026F00070BD16F8010BAFF30080F5E74FF0FF3027
:1027000070474FF4005300204B6070470120704722
:1027100000207047FDF71CFD0B480C490C4A0023B4
:1027200002E0D458C4500433C4188C42F9D3094A87
:10273000094C002301E013600432A242FBD303F0F2
:102740008DF9FFF7FFFB704700000020800000209C
:10275000ECF5010880000020D4210020FEE708B538
:10276000002001F083FBBDE8084001F069BF0000D4
:1027700010B502F05BFF072390FBF3F3074CC3EBAC
:10278000C303C01A608102F051FFC30749BF6389C8
:10279000B4F90A305B421BB2638110BD720600209F
:1027A00037B5038AB0F91220023B002A0446418A59
:1027B0001BB246DD002580890095421E401A12B2E8
:1027C000194600B201F002FC238AA089618A013B0C
:1027D0001BB2421E401A12B2194600B2009501F017
:1027E000F5FBA089618AB4F91030421E401A0095A9
:1027F0004FF6FF75194612B200B201F0E7FB238ACB
:102800000095023B1BB21946B4F90E20B4F90C0036
:1028100001F0DCFB238A0095013B1BB21946B4F999
:102820000E20B4F90C0001F0D1FBB4F91030009582
:102830001946B4F90E20B4F90C0001F0C7FB03B03F
:1028400030BD0025C0890095421A0130194612B2E8
:1028500000B201F0BBFB238AE089628A013B1BB214
:10286000821A0130194612B200B2009501F0AEFB97
:10287000E089628AB4F91030821A0130B7E70000AB
:1028800030B5274B04461D788BB0EDB9254B264952
:102890009A8A02A802F0CAFFB4217820234B02AA28
:1028A000CDE9004500F034FF214B1F499A8A02A868
:1028B00002F0BCFF3C217820CDE900451B4B02AA69
:1028C00000F026FF0BB030BD1A4902A803F0EDF866
:1028D00000243C214FF478430846CDE9003402AA95
:1028E000124B00F015FF144B14491A8802A802F08D
:1028F0009DFF4FF4FC6302AA6B213C2000930194DE
:102900000A4B00F005FF0E4902A803F0CEF84FF67F
:10291000FF739621009328200A4B019402AACFE767
:102920004006002096060020B96B0108ABB50108EF
:1029300080060020A76B010846060020B26B010844
:10294000BD6B0108B9E9010870B500224FF6FF74AC
:1029500088B0104650232821009401F037FB012253
:10296000502310462821009401F030FBF0223C2334
:1029700010461421009401F029FBEF223C2310465D
:102980001421009401F022FB3C2123460846052235
:1029900001F0A8FB6E23614E1946F022002000943E
:1029A00001F014FB337C5E4D002B59D15D4B2C782C
:1029B0001B7C002B54D0002C44D101225A4B5A26A8
:1029C0001A709625FFF7CBFEF0235848584903822A
:1029D0008681C581048144814482848203F065F844
:1029E00002235448544903828681C58144828482EB
:1029F00003F05BF87822514B51499A80DA80052226
:102A00000C8050491C8009785C801A8119B1022918
:102A10000CBF0F220A224C499A810A8001224B4B9B
:102A20001A70FFF7A5FE7F220020494B1B681B6828
:102A30009A62484B187001F019FA08B0BDE870406E
:102A400001F0FEBD012C07D10222374B1A7008B0ED
:102A5000BDE87040FFF783BE022C01D1FFF77FFE77
:102A6000B27B2B78002A40D12E4A927B002A3CD0A0
:102A7000012B01D801332B704FF0FF330393ADF8D6
:102A800010302B78002B3BD14FF6E073ADF80C30B3
:102A90000024314905A803F008F8BDF80C3005AA58
:102AA000009382212D4B3C20019400F031FE2C49F3
:102AB00005A802F0FAFFBDF80E3005AA0093962192
:102AC000264B3C20019400F023FE264905A802F085
:102AD000ECFFBDF81030AA2100933C201F4B01945D
:102AE00005AA00F015FE08B070BD727B002AC3D1A4
:102AF0000C4A527B002ABFD0002BBDD0013BBAE765
:102B0000012B04D14FF6E073ADF80E30C0E7022B75
:102B100004BF4FF6E073ADF81030B9E75E06002051
:102B2000420600204A0600204306002096060020A8
:102B3000D56B010880060020DD6B010872060020BD
:102B4000460600200D0000200E0000204806002050
:102B50003C06002044060020E56B01088F6D01084B
:102B6000F06B0108F86B01086FF06303A1F5FA61DF
:102B700091FBF3F130B58589C4896B18002B418234
:102B80000CDD6318EF2B13DC89B26A18214492B272
:102B900089B2058144818281C18130BD08D06B42F8
:102BA0001BB243829BB2EA18234492B299B2F0E777
:102BB000C4F1F003F4E7000084B0F8B5054607A8B7
:102BC000002480E80E005A279626F0231A481B4955
:102BD0008781C6810481448103824482848202F019
:102BE00064FF0223164817498781C6810382448205
:102BF000848202F05AFF7822134BBDF82E009A808F
:102C0000DA8005221A81114A1C8012885C809A8120
:102C100002F0DEFC01220E4B1A70FFF7A9FD7F22A5
:102C20000C4B20461D602B689A6201F01FF9BDE82D
:102C3000F84004B001F004BD96060020D56B0108F1
:102C400080060020DD6B0108720600200E000020C7
:102C5000480600203C06002084B030B503AC84E870
:102C60000F000E4B0E4A03F1140153F8040B8B4274
:102C700042F8040BF9D1094B03AC07AD224603CA55
:102C8000AA4218605960144603F10803F6D1BDE862
:102C90003040106804B01860704700BF5E06002026
:102CA0004A0600202DE9F04F794DB9B02F78012F59
:102CB00007D0022F00F0348239B0BDE8F04FFFF7A3
:102CC00043BE744E3378002B40F0F880724C21885C
:102CD000A1F5E163B3F5C87F02D97048FFF744FF5F
:102CE000E188A1F5E163B3F5C87F02D96C48FFF72D
:102CF0003BFF6C4D6C4C2B783BB1B4F90C30002B86
:102D0000CCBF05236FF00403A381B4F90620A18989
:102D100062800A44B4F90430E280DFF8908162896D
:102D200000212380D8F800001344A380FDF7F6FCAF
:102D3000DFF868E1B4F906102289BEF8103001EB23
:102D4000020999455ADBB4F90430BEF80C0002EBD5
:102D5000030C844552DBBEF80E00A3EB020C844545
:102D60004CDC534AB4F90C60B2F90020002EDCBFF1
:102D7000524212B292B256421E388A1AA681E2809C
:102D80001B1A00222A704B4A03EBD373127843F3C9
:102D90004F03012A638113D147490A8801320A800F
:102DA00073B902F043FC032390FBF3F303EB4303FB
:102DB000C51A02F03BFCC20748BF6D422DB26581C7
:102DC000B4F90820B4F90210B4F90000002301F0AE
:102DD00089F94FF6FF73B4F90820B4F90610B4F975
:102DE000040001F07FF92D48FFF7DAFC2C48FFF7CB
:102DF000D7FC39B0BDE8F04F01F022BC2848A1EB68
:102E0000020A038A9A4500F38682B4F90430B0F8C6
:102E10000CC002EB030BE34518DBB0F80EC0A3EBCC
:102E2000020BE34512DC224AB4F90C00B2F900208F
:102E30000028DCBF524212B292B25042891AACF161
:102E40001E0CA081E180A3EB0C039AE7B9F1F00F0F
:102E500000F36582BAF1000F11DBB4F9043093423C
:102E600002DD1A44EF2AABDD6289D8F80000514236
:102E700061819B1A0021A380FDF714FCA0E70123C8
:102E80002B70BEF814300133AEF814304DE200BFA1
:102E900043060020440600205E060020960600201F
:102EA0008006002048060020720600203C06002014
:102EB0000E0000204006002046060020013B012BAA
:102EC00000F21D81B34C4FF6FF70FFF7D9FCA38AC7
:102ED000042B04D8B04B9B8A042B40F2FB80337840
:102EE000032B00F0F780FFF73AFCA18AAA4AA94B0E
:102EF0004FF6FF7B042994BF914699460A211F2370
:102F00000846052200F0C6FFE6214FF47843084644
:102F1000052200F0BFFFB9F810300522EF2B8CBF5F
:102F2000B4273C274FF6FF7339464FF078008BBF2C
:102F30004FF0D2084FF01E084FF0E10A4FF00F0A91
:102F40008BBFBE253225C3242D2400F0A3FFB9F882
:102F500010302DB2EF2B94BF782278224FF6FF73FA
:102F600094BF791F791D0093104694BFA7F11E03EB
:102F700007F11E0327B201F029F839462B467822C3
:102F80006420CDF800B001F021F83B4600270FFA8D
:102F90008AFA0FFA88F88C2229467820CDF800B0FA
:102FA00001F014F84346514678226420CDF800B071
:102FB00001F00CF8534641468C227820CDF800B041
:102FC00001F004F8DFF8D4A1582275490CA802F0EA
:102FD00074FD5822734922A802F06FFD0021DAF82F
:102FE0000000FDF75FFBB8460FFA84FB59462B46FD
:102FF00078226420CDF8008000F0E8FF5B464FF6B1
:10300000FF7B8C2229467820CDF8008000F0DEFF7F
:10301000FB0754BF0A340A3CA4B221B22B467822E3
:103020006420CDF800B0039100F0D0FF03998C220A
:103030000B4678202946CDF800B000F0C7FF0CAB56
:1030400053F8273033B140F6B8325343564A92FB17
:10305000F3F3013B4FF47A70DAF8001022AA52F829
:103060002720096890FBF2F08B62FDF73BFEDAF84F
:10307000003000201B680137C3F82880FDF732FEBE
:10308000162FB1D10021DAF80000FDF747FB7F22AF
:103090004FF6FF74DAF8003044491B6804A89A62BE
:1030A0004A4602F0C3FB424B04AA78213620CDF8F1
:1030B0000480009400F02CFB3E4904A802F0F5FCCB
:1030C0003D4B96212820CDE9004804AA00F020FBC2
:1030D000032333703378022B0CD1384B1B79E3B9BF
:1030E00000243470FFF744FB204639B0BDE8F04FB0
:1030F000FFF7C6BB012B10D1304B9B7AEFE7304B6B
:103100001B78012B03D14FF6FF70FFF7B9FB2B4B58
:103110001C7C14B9FFF723FB2C7039B0BDE8F08F8D
:10312000264B284C9A7B2ABB274A927B12B327490D
:103130000A7812B901220A702270197C002954D130
:10314000214A127C002A50D0204B1B78002B41D101
:1031500001221F4922700A78022A16BF01320B7021
:103160000A701A4B1B78002B50D14FF6FF754FF6A3
:10317000E07653E05A7B002ADFD1134A527B002AC3
:10318000DBD012490A78002AD7D0013A0A7001220E
:10319000D2E700BF96060020800600203C060020F3
:1031A0009C6A0108F46A01080090D003026C0108CF
:1031B0008F6D0108BD6B0108B9E901085E060020AA
:1031C000400600200C0000204A0600204106002096
:1031D0000D000020012B15D1594A23701378012BC3
:1031E00016BF013311701370BBE7DB7B53B9554A2F
:1031F000D27B3AB101222B70227039B0BDE8F04F7A
:10320000FFF7ADBA2378002B87D0AAE7012B14BFB4
:103210004FF6FF754FF6E0754FF6FF764A4922A844
:1032200002F043FC00274FF6FF7322AA0A213C203C
:10323000CDE90037454B00F06BFA454922A802F072
:1032400034FC444B50213C20CDE9006722AA00F019
:103250005FFA414B1B78012B47D0022B4BD0002B40
:1032600050D13E4922A802F020FC4FF4FC67002612
:103270003B490CA802F019FC6E215420354B0CAAD6
:10328000CDE9006600F044FA324B22AA6E215420A8
:10329000CDE9007600F03CFA324922A802F005FCA4
:1032A0002C4B8C213C20CDE9005622AA00F030FAAC
:1032B000234B1B78012B27D02B4922A802F0F5FBCA
:1032C0004FF478460025AA215420224B0CAACDE9C0
:1032D000005500F01DFAAA215420CDE900651D4BD0
:1032E00022AA00F015FA257017E7204922A802F05B
:1032F000DCFB1F27BBE71E4922A802F0D6FB4FF4D8
:103300007847B4E71B49F1E71B4922A802F0CDFB3F
:103310004FF4FC66D6E7B9F1F00F7FF79EAD0123BD
:1033200002272B70838A01338382054B37701B7809
:10333000012B04BF032333707823A380E3803FE590
:10334000400600204A0600200A6C01089D8D0108F5
:10335000156C01088F6D01080D000020226C01081A
:103360003A6C0108476C0108536C0108276C01088E
:103370002E6C0108336C01085A6C010840222DE9BB
:10338000F8431C4B04461A614FF080720D464FF60D
:10339000FF79194FDFF864801A612DB94FF48072FC
:1033A000144B1A61BDE8F8834D452E4628BF4E46A2
:1033B000202DB2B215D921463846FEF7CDFBB86CA8
:1033C000FEF7F6F90128FAD198F90230012B06D15F
:1033D00098F90130012B0CBFA41904EB4604AD1B76
:1033E000DBE74FF0FF3321463846FEF705FB98F93F
:1033F0000030EFE7000C0140680500201C000020B1
:1034000070B5202892B00446ADF8061010D802AA74
:103410000023164689B2A34211D174B1202C25464F
:1034200028BF202530462946FFF7A8FF641BF4E794
:1034300001460DF10600FFF7A1FF12B070BD22F8A2
:10344000021B0133E7E700000B4A012813681968E3
:1034500021F040011960094908700BBF4FF4006169
:103460000021D160D1600BBF1A681A680A4322F4A8
:1034700000621A60704700BF680500201C00002031
:1034800070B5214E054696F9003048B283420C468D
:1034900001D0FFF7D9FF96F90130A34203D196F985
:1034A0000230AB4227D0194B70709A6CB57013681C
:1034B000196821F001011960196811F00101FBD1AF
:1034C000012D0BBF8021D160D16019680ABF196836
:1034D00021F0800141F08001012C19600CD14FF4E2
:1034E00080704FF48061C2E904011A6822F47062AE
:1034F00042F4A0621A6070BD0021C2E904111A688A
:1035000022F47062F6E700BF1C000020680500206E
:1035100000210120FFF7B4BF70B5134B044693F9A7
:1035200000300D4613B10020FFF78EFF4FF48003EB
:103530000E4E012233614FF08073214633610C48F7
:103540004FF0FF33FEF758FA45B140232A46336166
:1035500007484FF0FF33611CFEF74EFA4FF48072BC
:10356000024B1A6170BD00BF1C000020000C01401E
:103570006805002037B51C462A238DF80030031259
:103580000D468DF801308DF80200131268460421B3
:103590008DF804208DF80330FFF7BEFF2B238DF844
:1035A00000302B1268468DF80130042123128DF86B
:1035B00003308DF802508DF80440FFF7ADFF2C2347
:1035C000002168468DF80030FFF7A6FF03B030BD3C
:1035D000B0F1FF3F08B505D101200021FFF750FFF2
:1035E000002008BDFFF7C6FF00200121FFF748FFBC
:1035F0004022024B02481A61F3E700BF000C014071
:103600000134010837B585B2EF2D0B4618D88DB2BD
:10361000EF2D15D852BAADF804200246FFF7AAFFE5
:103620004023084C022223614FF080730648236137
:1036300001A94FF0FF33FEF7DFF94FF480732361E8
:1036400003B030BD000C01406805002038B55C1A9D
:10365000151A013405FB04441BB212B209B200B2C0
:10366000FFF788FF01210020FFF70AFF2046BDF881
:103670001010FFF7C5FE00210120FFF701FF002019
:1036800038BD904213B509D199420FD8BDF810400A
:103690000094FFF7DBFF002002B010BD994209D172
:1036A0009042F3D9044610462246EFE70C461946ED
:1036B0002346EBE74FF0FF30EEE7EF2870B51446F6
:1036C00025D8EF2923D895884319F02B1FDCD688FD
:1036D0008B19F02B1BDC137A102B18D14B1E421EBA
:1036E00033442A441BB212B209B200B2FFF742FFC0
:1036F00001210846FFF7C4FE06FB05F12068FFF72D
:103700003DFEBDE8704000210120FFF7B9BE70BD4D
:103710002DE9F0410D4616460446BDF818801846BE
:10372000BDF81C7000F05CFB404600F0ABFD384675
:1037300000F0B0FD324629B220B2BDE8F04100F001
:1037400047BD00280CBF2823292307B5002101A865
:103750008DF80430FFF7E0FE03B05DF804FB0000D5
:103760004FF4807370B51F4C012023614FF40003A8
:103770002361FDF7B7FA8023C8202361FDF7B2FA71
:1037800019491A4800F0F4FA0020194900F04AFFDC
:103790000120184900F046FF0220174900F042FFBF
:1037A0001649032000F03EFF002000F07BFD0020C2
:1037B00000F080FD0024124E355D601C02342C4464
:1037C00029463044A4B2FFF7A7FE4B2CF4D90020C1
:1037D00000F04CFB0120FFF7B4FFBDE8704000F0A3
:1037E0002FBF00BF000C014010000020AC060020DD
:1037F000833601084D360108D1350108BB36010872
:10380000436D0108414B2DE9F0431A68404FD2F84F
:1038100044C03B689C450CD13E4B1B88834208D179
:1038200011B13D4B1B680B603C4BB3F90000BDE888
:10383000F08392F82D3053B1DC285AD012D8C42826
:1038400059D00BD8B02858D0B52808BFE62000249E
:10385000B2F834E0A146234625461AE0D62808BF30
:103860009920F4E7F6284AD0FC284AD0E42808BF7B
:103870008420ECE7D66B36F8148098FA98F818F4A0
:10388000004F1FFA88F60AD04FF00109C6F30E0563
:103890000134A6B2B645EDD84FF0FF30C7E7B9F115
:1038A000000F20D08542F7D8864215D303445B1B16
:1038B0009BB2184CC7F800C02080108E146C03FB1C
:1038C000004415480460906BE8B1C05C134B18804D
:1038D0000029ACD00C60AAE701335B1B33444FF0E6
:1038E00000099BB2D4E78642E3D0D5D801339BB21E
:1038F000CEE79A20ABE78E20A9E7F820A7E794202F
:10390000A5E78120A3E792F82E00DFE73807002023
:1039100034070020300700202C0700202807002053
:10392000174B30B51B685A6C824228D05864027815
:1039300002F07F0283F82C200278D20983F82D2030
:10394000427883F82E20827883F82F20B0F8032065
:1039500052BA5A8695B2B0F8052052BA9A8694B2F5
:10396000B0F8072052BA1A86417A00F10A0209B16A
:1039700011462A44C3E90E1202EB44021A6430BD18
:10398000380700202DE9F04F8B4D95B02E6801933C
:10399000BDF878308946059396F8483013A9144647
:1039A00096F868700393FFF72DFFB0F1FF3F824652
:1039B0004DD096F82E30002B00F09381DA085B078B
:1039C0001CBF134601330A9218BF0A9317F0020373
:1039D000049340D096F82F3009F1FF32013B0244A6
:1039E000234421464846766E1BB212B2B0470746C2
:1039F0002B6893F82C30002B40F02481A2B29B4618
:103A00001C461E461D461FFA89F30C92029206932D
:103A10001FFA89F21FFA8AF30F93134410930C9A3A
:103A2000029B9B1A644A9BB2126892F82F209A421A
:103A300000F2BE80049B53B1BBF1000F00F0BE80CA
:103A4000039B002B40F0538158460599B8475046D8
:103A500015B0BDE8F08F049FCAE7139BD04503F172
:103A600001021B7813920B9327DA08F108031BB2AB
:103A70000D93BDF908300E930B9B13F0010F049BBF
:103A80003DD0002B30D0BBF1000F23D0039B002B87
:103A900040F0298158460599B8474FF0000B013492
:103AA000A4B20B9B5B080B9308F101030FFA83F898
:103AB0000D9B434501D0C245DED1089B01330893DD
:103AC000BDF820300A9A9342C7D3029B01339BB2C0
:103AD0000293A4E7002CE0D1039B002BDFD009EB7D
:103AE0000805029EADB2DAE7334B019A1B680E99C6
:103AF0001B6809EB08005B6800B29847D1E7002B10
:103B000049D0002C3DD0039B002B37D0069BA94504
:103B10000993BDF840300793A3EB05039BB21FD078
:103B2000A3421DD8079B5A1E12B2234933B209681B
:103B300028B24F6E19461192B847019907462046A0
:103B4000B847079B2C44E41A0136A4B2119AB6B2C6
:103B5000C4B1069B4B451CD00F9B069DA342E4D9E4
:103B600094FBFAF31449079A09683344013A4F6EFB
:103B70001BB212B231B228B2B847074620460199AB
:103B8000B84709950BF101030024099D1FFA83FB37
:103B900087E7069DE4E7039B002B82D1064B059A3D
:103BA0001B68BDF908101B6809EB08005B68A3E7F8
:103BB00000239846089383E738070020002C3FF441
:103BC00046AF039B002B3AD01FFA89F81FFA8AFBF5
:103BD0000BEB0807BFB27B1BA9459BB21ED09C42D2
:103BE0001CD37A1E12B2444933B2096828B2496E16
:103BF00002928C461946E047034620462C44E41BBB
:103C000001990136A4B29847B6B2029A002C3FF44B
:103C10001EAFC845454601D0A345E4D994FBFAF34D
:103C20003549334409687A1E1BB24F6E12B231B265
:103C300028B2B847019903462046984707E720462F
:103C4000019903E7012B7FF402AF9DF804300026B1
:103C500002932DE018785A1C9DF81430C0F5807C32
:103C60000CFB03F31392029A00FB0233019AC3F395
:103C7000072302F47F41059A02F47F420CFB02F213
:103C800000FB0122121202F47F421A43049BE3B1AB
:103C900011460120B84701355545139BDADB164A1A
:103CA0000136126892F82E20A2EB0A0213441393F5
:103CB000DFF844B01FFA86F8DBF8003093F82F30B5
:103CC00043457FF6C4AE0025E6E7DBF8003008EB9D
:103CD00004011B6805EB09005B6809B200B2984754
:103CE000D9E79A46B3E6002C3FF4F9AED7E6002CAC
:103CF0003FF4ADAE68E700BF3807002010B5036899
:103D0000014693F900201878002A2EDB01330B605E
:103D100010BD01340C60F2B9DF2B07D8012203F08B
:103D20001F000C682378002BF3D1F1E7EF2B03D8A9
:103D3000022203F00F00F4E7F72B03D8032203F06D
:103D40000700EEE7FB2B95BF0422052203F00300DA
:103D500003F00100E5E703F03F03013A43EA801373
:103D600012F0FF0298B2DCD1D2E700200246D8E779
:103D70004FF004120346C26101604A8808884FF67A
:103D8000FF71053A12B25A845A830538002200B2F4
:103D900018841883D964012045F65D41C3E90E22D9
:103DA000C3E91022C3E903229A62DA851A639A866C
:103DB0005A615A6583F85820DA6583F860205A669C
:103DC00083F86820DA6683F87020044A83F8490093
:103DD00083F84A00A3F8501013607047380700209A
:103DE000014B1B68986270473807002082422DE91A
:103DF000F3471C46A8BF134617460646A4BF07460E
:103E00001E468C42A8BF2346DFF85CA00D46A8BF23
:103E10001D46DAF80030A8BF0C4693F86020BDF8C4
:103E2000289092071CD5CDF80090D3F85C803246DC
:103E30002B4621463846C04790B902B0BDE8F0870E
:103E4000DAF8003040461B684A4621465B689847CE
:103E500008F101080FFA88F84645F1DA013424B276
:103E6000A542EADBB846F7E73807002007B500218E
:103E7000074B1B681A6853881288013B013A00906F
:103E80001BB2084612B2FFF7B1FF03B05DF804FBA6
:103E9000380700202DE9F04F1C4650EA0103174671
:103EA00087B000F18D80002A40F38A804FF000092E
:103EB0005300C3F101031BB2049383B20193424D3B
:103EC0008BB2CDF80C900293019B1FFA87F8A3EBFD
:103ED0000800029B1FFA89F603EB060B2B680FFA0A
:103EE0008BFB1B68594600B222465B6805909847D9
:103EF000029B2246A3EB060A2B680FFA8AFA1B687C
:103F000051465B6805989847019B594603EB0800AA
:103F10002B6800B21B6822465B68059098472B68A7
:103F200051461B6822465B6805989847019B2246CC
:103F3000981B029B00B208EB030B2B680FFA8BFB5C
:103F40001B6859465B6805909847029B2246A3EB85
:103F5000080A2B680FFA8AFA1B6851465B680598B5
:103F60009847019B224698192B6800B21B68594656
:103F70005B68059098472B6822461B6851465B6832
:103F800005989847039B03EB460633B20393DDE99C
:103F9000031303EB4103002BB2B20BDDBDF810306D
:103FA00008F1FF381A44023312B21BB20FFA88F735
:103FB0000392049309F101090FFA89F39F4283DA0E
:103FC00007B0BDE8F08F00BF380700202DE9F04FA3
:103FD000DFF80CA187B0DAF800C004469CF858E07E
:103FE0000D461EF0020F16461F46BDF840804AD10E
:103FF000321B12B2002AA7EB050382EAE277A7EB95
:10400000E277CCBF01224FF0FF321BB283EAE376A6
:10401000002BA6EBE376DAF80030B9B21B68039107
:10402000B1B2049105922946424620465B683FB2F0
:1040300036B2D4BF4FF0FF394FF001099847B7426D
:104040002BDA4FF0000ADFF898B077100FFA8AF3F6
:104050009E421FDD039B1F44BBB23FB2BE4205DC44
:10406000049A9B1A1FB2059B1C4424B2DBF8003053
:104070004D441B682DB24246294620465B6898474E
:104080000AF1010AE2E7CDF80080DCF85490C84755
:104090000028ADD107B0BDE8F08F4FF0000ADFF87F
:1040A00040B07E100FFA8AF39F42F3DD049B1E445A
:1040B000B3B236B2B74204DC039A4D449B1A1EB227
:1040C0002DB2059B42461C44DBF8003024B21B682D
:1040D000294620465B6898470AF1010AE2E700BFDB
:1040E000380700202DE9F04F1F46034687B00B43E9
:1040F0009046CDE9020167D4B8F1000F64DD444673
:104100004FF000094FEA4805C5F10305BDF808A0C6
:10411000BDF80CB02DB2002C1FFA89F617DDA3B242
:10412000AAEB060212B2ABEB03015B44104609B2E4
:104130001BB20097CDE90413FFF748FFDDE9041334
:104140000AEB060212B210460097FFF73FFF0FFA84
:1041500089F3002B19DDA3B2AAEB030212B2ABEB79
:1041600006010BEB0603104609B21BB20097CDE91E
:104170000413FFF72BFFA3B20AEB030212B210469F
:10418000DDE904130097FFF721FF002DABB212DA2F
:10419000063303EB86031DB209F101090FFA89F317
:1041A000A342B8DDDDE902013B46424607B0BDE867
:1041B000F04FFFF76FBEA4B2361B0A3303EB860342
:1041C000013C1DB224B2E7E707B0BDE8F08F000064
:1041D0002DE9FF478046DFF8A8900F46D9F8003058
:1041E0000392986AFFF79CFB4646039BD9F8004070
:1041F0001D786DB994F868309B0706D54FF0FF33F2
:10420000646E1A4619461846A04704B0BDE8F08708
:1042100094F82D204AB903A8FFF770FD05460A2D32
:1042200006D12368B3F90060DFE701330393F6E7B3
:1042300000212846FFF7E6FAB0F1FF3F8246D4D0CE
:104240002368B3F9002033189A4207DC464694F8F5
:104250002F3094F94A2013443B441FB2B4F84E2047
:10426000B4F84C303146009228463A46FFF78AFBB4
:10427000D9F8003093F94930534433441EB2B4E7BF
:1042800038070020024B1B68A3F84C00704700BFA2
:1042900038070020024B1B68A3F84E00704700BF90
:1042A00038070020024B1B6883F84900704700BFA5
:1042B00038070020024B1B6883F84A00704700BF94
:1042C000380700202DE9F04F0446406889B00028E7
:1042D00000F0A1802368002B00F09D80B4F90E60EF
:1042E000B4F90A5090F802A0721B5245C0F29380B4
:1042F000B4F90C20CDE906330492B4F91820B4F9CE
:10430000088094F81490B4F916700392FFF708FB34
:104310000123DFF808B1DBF8002092F82D2052B914
:1043200007A80593FFF7EAFC059B48B10A28F2D1DC
:1043300001339BB2EFE7079A511C10780791F4E71D
:1043400019F0300FADB20ED00136761B03FB1A66A2
:10435000039A013B03FB126630B200285BDB19F0C5
:10436000100F18BF4010049B1FFA88F80133BFB22A
:10437000A3EB08030544FB182DB204930026069B0B
:104380000793DBF8002092F82D2072B907A8FFF7F9
:10439000B5FC78B10A280DD00021FFF733FA421C92
:1043A000EFD0F31903449EB2EBE7079A511C107843
:1043B0000791EEE7049B991B09B200292BDB19F04A
:1043C000010F1CD119F0020F00D0491041440EB268
:1043D000DBF8003093F82D309BB906A8FFF78EFC70
:1043E000C8B10A2812D0638A2A460093238A31462C
:1043F000FFF7C8FA431CEBD0B9190144E7E70021E5
:10440000E4E7069B5A1C18780692E9E7039B53449D
:104410002B441DB2B2E709B0BDE8F08F3807002089
:104420002DE9F04104468AB000285ED0037A9A074D
:104430005BD5837DB0F90E50DB07B0F91080B0F981
:10444000126007D5033508F10308033E2DB20FFAB9
:1044500088F836B2264B1FFA88F71B6841461B695D
:1044600028469C420BBFE38C638DADF81E30ADF83F
:104470001E300CBFA38C238DBDF81E20ADF81C3060
:1044800094F82C300092013B3B4432461BB2FFF7BC
:10449000ADFCA36903A80393E369ADF81680049308
:1044A000EB1CADF8143094F82C30ADF81860013BDB
:1044B0003B44ADF81A3094F822308DF8203094F94E
:1044C0002030ADF8223094F92130ADF82430FFF7D8
:1044D000F9FE49F6135294F82C3028463B441BB29F
:1044E000009219463246FFF771FD0AB0BDE8F0812F
:1044F000380700202DE9F04F0E469B4604469046B3
:1045000087B093B2109D03F1FF3903930FFA89F33B
:1045100002932B88029A00930B46FFF757FD1FFA70
:1045200086F91FFA8BF3049309F1010703F1FF3AAF
:104530006B883FB20FFA8AFA22463946204600932A
:104540005346FFF743FDAB88424659462046009349
:104550005B46FFF73BFDEB88424631464046009301
:104560005346FFF733FDA3B20593581C039B04B2D7
:10457000A3F102082B890FFA88F8424639462046F3
:1045800000933B46FFF722FD049B09F10206A3F1CD
:10459000020B6B8936B20FFA8BFB2246314620465E
:1045A00000935B46FFF712FDAB8951462046029A05
:1045B00000935346FFF70AFDEB89029A39461046ED
:1045C00000935B46FFF702FD059B31469C1C039B55
:1045D00024B2DA1E2B8A2046009312B23346FFF72C
:1045E000F5FC049B09F10301DF1E6B8A3FB22246F2
:1045F0002046009309B23B46FFF7E8FCAB8A4246EF
:104600005946204600935B46FFF7E0FCEB8A4246A2
:10461000109331463B46404607B0BDE8F04FFFF7E8
:10462000D5BC0000032807D8044B1B6803EBC0006F
:104630000323416580F85830704700BF38070020D9
:104640002DE9F347A34D2A6892F85230DF0744BFA3
:1046500023F0010382F85230D2E90330834223D0A1
:1046600013B3C2E90430B8B1827D960714D5027A3B
:10467000140711D5B0F90E10B3F90E20914209D1EB
:1046800001691A69914205D1B0F91420B3F91430C7
:104690009A4201D0FFF7C4FE2B681A69137A23F0FF
:1046A000400343F0280313722A68146944B92B6845
:1046B0001B689B68002B40F0098102B0BDE8F087C1
:1046C000237A980654D523F0200121721907B4F9F2
:1046D0000E80B4F91070B4F91290B4F914A040F13E
:1046E0008380A27DD60717D5580615D47A4B4A4643
:1046F0003946404600935346FFF7FCFE08F1030895
:104700000337A9F10309AAF1030A0FFA88F83FB2A7
:104710000FFA89F90FFA8AFAA37D99070AD520467C
:10472000FFF77EFE237A94F82C605A061DD40136DA
:104730003E4437B2A3894A46009339465346404621
:10474000FFF754FB0022267893B29E4210D960688E
:104750005101435C03F00307022F04D11F0744BF3C
:1047600043F0600343540132EEE723F04003237229
:10477000237A1B079BD500202B6894F80080B3F99F
:104780000660B3F9087093F804C083B2984535D831
:104790000026B3B2984577D800260223B2464F4F81
:1047A0007E603B7094F80090B3B299457FF67FAF7E
:1047B00062687301D35C02EB461803F00303022B1B
:1047C00010D198F81A306BB198F81820FB707A70F5
:1047D00098F819203846236BC7F80480BA709847B8
:1047E00088F81AA00136DFE7B2F85030414600934E
:1047F0004A4653464046FFF7F9FAB9E7D4F804E0D1
:1048000042011EF802200EEB401102F04B020A2A70
:104810004B7829D103F04002BCF1000F27D0B6F14C
:10482000FF3F24D01AB903F0E70343F00503B1F9C1
:1048300008E003F0DF02B64514DCB1F90CE0B64540
:1048400010DBB1F90AE0BE450CDCB1F90EE0BE4563
:1048500008DB13F0400F0ABF03F0DB0242F0200236
:1048600042F0220242F040034B7001308DE7002AF3
:10487000FAD09A064CBF43F0080343F0100303F04C
:10488000B90343F00103EFE76268730112F8039084
:1048900002EB461709F00303022B97F801A013D18E
:1048A00019F0200F03D0394620467B68984719F04D
:1048B000080F09D019F0800F06D01AF0410F03D06D
:1048C000394620467B689847013662E702B0BDE86A
:1048D000F047184738070020C8F5010820070020D6
:1048E0004FF0FF3200F10803C0E902234360036187
:1048F00000230360704700230361704730B50C68E4
:10490000631C0AD103695A684A6091608B605960E0
:10491000036808610133036030BD00F108021346EB
:1049200052681568A542FAD9EDE70369D0E901128A
:104930008A6051605968814208BF5A600022026152
:104940001A68013A1A601868704700000648006843
:10495000006880F3088862B661B6BFF34F8FBFF37B
:104960006F8F00DF00BF000008ED00E0002382B081
:1049700001930D4B1B68013308D04FF0500383F3B4
:104980001188BFF36F8FBFF34F8FFEE74FF05003D7
:1049900083F31188BFF36F8FBFF34F8F019B002B01
:1049A000FCD002B0704700BF200000204FF08073A1
:1049B00040F8043C054B21F0010140F8081C40F888
:1049C0000C3C40F8202C4038704700BF6D4901086E
:1049D000074B19680868B0E8F00F80F30988BFF347
:1049E0006F8F4FF0000080F311884EF00D0E70476E
:1049F000842000204FF0500383F31188BFF36F8FA2
:104A0000BFF34F8F0A4A13680133012B13600ED195
:104A10004FF0E023D3F8043DDBB243B14FF0500335
:104A200083F31188BFF36F8FBFF34F8FFEE770479B
:104A300020000020084A136843B94FF0500383F365
:104A40001188BFF36F8FBFF34F8FFEE7013B1360F9
:104A50000BB983F31188704720000020000000008C
:104A6000EFF30980BFF36F8F0D4B1A6820E9F00F49
:104A700010602DE908404FF0500080F3118800F0DD
:104A800065FD4FF0000080F31188BDE8084019680B
:104A90000868B0E8F00F80F30988BFF36F8F7047A4
:104AA0008420002008B54FF0500383F31188BFF332
:104AB0006F8FBFF34F8F00F0D1FB28B14FF0E02391
:104AC0004FF08052C3F8042D002383F3118808BDF2
:104AD0004FF0E02200234FF47A7113619361044B8D
:104AE0001B68B3FBF1F3013B53610723136170476C
:104AF0000000002013B5274B1A78D2B20192FF2292
:104B00001A701B78244ADBB28DF803309DF803300D
:104B100003F0500313700723204A13609DF803101D
:104B2000136809060AD4032B11D04FF0500383F306
:104B30001188BFF36F8FBFF34F8FFEE7013B136008
:104B40009DF803305B00DBB28DF80330E6E74FF4ED
:104B500040731360019B0F4ADBB213704FF0E023E8
:104B60000024D3F8202D42F47002C3F8202DD3F88E
:104B7000202D42F07042C3F8202DFFF7A9FF084B0B
:104B80001C60FFF7E3FE00F0E1FC2046FFF7EEFEBD
:104B900002B010BD00E400E0400700203C07002008
:104BA0002000002010B5104B1A461B688342FBD32F
:104BB00054681119884201BF4168104609195160B3
:104BC000446801198B420CD1084909688B4203D013
:104BD00059682144416019689042016018BF106013
:104BE00010BD1946F8E700BF580700205407002001
:104BF000F8B5044600F02AFB3F490B68F3B93F4A79
:104C00003F4D50071FBFD01D20F0070002F5C052D6
:104C1000131A0CBF4FF4C053024600201344083B44
:104C200023F0070368602A60C3E90000981AC2E90C
:104C300000300B60334B1860334B1860002C4AD0A7
:104C400004F00703A3F11102A24251D304F1100EA4
:104C5000AEEB030CBCF1000F4ADD2B4F3E686645FE
:104C600046D3274A15686868604501D22C68BCB9EC
:104C70000968A9423CD0A3EB0E0329680344102B1A
:104C80001468116014D905EB0C0042070BD04FF0EB
:104C9000500383F31188BFF36F8FBFF34F8FFEE78D
:104CA0002A462546DFE74360C5F804C0FFF77AFFD0
:104CB00000236A681349B61A42F000426A60134A38
:104CC00008682B601368864203F101033E6038BF19
:104CD0000E600834136000F077FB63070AD04FF0D2
:104CE000500383F31188BFF36F8FBFF34F8FFEE73D
:104CF0000024F0E72046F8BD54070020600700209C
:104D0000580700204C0700205007002048070020CB
:104D100010B5044680B350F8043C002B08DB4FF07C
:104D2000500383F31188BFF36F8FBFF34F8FFEE7FC
:104D300050F8082C42B14FF0500383F31188BFF3B1
:104D40006F8FBFF34F8FFEE723F0004340F8043C22
:104D500000F07CFA094A54F8043C1168A4F10800F8
:104D60000B441360FFF71EFFBDE81040044A1368B0
:104D70000133136000F028BB10BD00BF50070020B6
:104D8000440700202DE9F0410446FFF733FE334B82
:104D9000334E1A68334F01321A603568002D52D1F4
:104DA00034601B68012B1FD1B84640460135FFF720
:104DB00097FD072D08F11408F7D1DFF8AC802B4DD3
:104DC0004046FFF78DFD2846FFF78AFD2848FFF78C
:104DD00087FD2848FFF784FD2748FFF781FD274B13
:104DE000C3F80080264B1D60264A274913680868CF
:104DF000013313600122E36A9A4002430A601422DD
:104E00005343F9184A68201D9568A260E560686000
:104E10009060FA5861610132FA50FFF70BFE1B4BAC
:104E20001B6873B13368DA6AE36A9A4209D24FF0B9
:104E3000E0234FF08052C3F8042DBFF34F8FBFF330
:104E40006F8FBDE8F081114B1A68E36A002ACBD15D
:104E50003268D26A9A4298BF3460C5E7841F002046
:104E600084200020F81F0020E41F0020D01F002015
:104E7000B41F0020A01F0020881F0020CC1F00208E
:104E8000C81F0020681F00207C1F0020781F002002
:104E9000F8B5204B204C06461D6820680F460430AC
:104EA000FFF743FD40B922681C49D06A01220B6814
:104EB000824023EA02030B60731C13D197B1184B95
:104EC00021685A688A6090682168C8602168043146
:104ED0004160216804319160226853611A6801328F
:104EE0001A60F8BD2368AD195D6007D30D4B1868D3
:104EF0002168BDE8F8400431FFF700BD0A4B18688F
:104F000021680431FFF7FAFC084B1A68AA4288BFEF
:104F10001D60E6E7801F0020842000207C1F002009
:104F2000881F0020C81F0020CC1F0020641F002005
:104F3000064A13681968064B19B94FF0FF321A6018
:104F400070471268D2681268F9E700BFCC1F0020D2
:104F5000641F002010B504460E4B1868503000F056
:104F6000E3FC94F895313BB9206BFFF7D1FE204666
:104F7000BDE81040FFF7CCBE012BF8D0022B08D0C3
:104F80004FF0500383F31188BFF36F8FBFF34F8F40
:104F9000FEE710BD8420002080B5134C134F144D44
:104FA000236873B9134B1B68012BF8D94FF0E0232A
:104FB0004FF08052C3F8042DBFF34F8FBFF36F8FB4
:104FC000EDE7FFF717FDFB68DE68301DFFF7ADFC6E
:104FD0002B68013B2B602368013B2360FFF72AFD10
:104FE0003046FFF7B7FFDBE79C1F0020A01F002023
:104FF000841F0020F81F00202DE9F0470A9C064678
:10500000DDE908A815461F46D4F8309069B14B1E5B
:1050100004F133020F3113F8010F02F8010F08B148
:105020008B42F8D1002384F84330BAF1060F08D937
:105030004FF0500383F31188BFF36F8FBFF34F8F8F
:10504000FEE7201DC4F82CA0C4F844A0FFF753FCD1
:1050500004F11800FFF74FFCCAF107034FF4A072E8
:105060000021A3612461646204F1500000F043FC5C
:10507000134B05F1804503F168026365D033A265E7
:10508000E36501220023C4E93A230E4A0E4B013D99
:10509000C4E93C230D4B09EB8500C4F8F8300B2321
:1050A0003A463146A4F8FC3020F00700FFF77EFCBA
:1050B0002060B8F1000F01D0C8F80040BDE8F087CB
:1050C000882000200E33CDAB34126DE6ECDE0500F7
:1050D0002DE9F04387B00546DDE90F940E461746EB
:1050E0009846B9F1000F08D14FF0500383F31188AF
:1050F000BFF36F8FBFF34F8FFEE744B94FF05003FC
:1051000083F31188BFF36F8FBFF34F8FFEE74FF428
:10511000CC730593059A9A4208D04FF0500383F35D
:105120001188BFF36F8FBFF34F8FFEE7002120463A
:10513000059B00F0E0FB022384F8953104ABC4F832
:10514000309001930E9B3A463146284600930294D4
:105150004346FFF751FF2046FFF714FE049807B0BF
:10516000BDE8F0832DE9F043074685B090008846FE
:1051700016469946FFF73CFD054620B94FF0FF3033
:1051800005B0BDE8F0834FF4CC70FFF731FD044665
:10519000A8B14FF4CC72002100F0ADFB0D9B25634C
:1051A00001930C9B324641463846009302944B468D
:1051B000FFF722FF2046FFF7E5FD0120E0E7284644
:1051C000FFF7A6FDDAE7000010B5002488B007AAB3
:1051D00006A905A8CDE90544FDF764F8059B079AE3
:1051E0000293069B1149CDE9004311482346FFF77E
:1051F0006FFFB8B14FF0500383F31188BFF36F8F87
:10520000BFF34F8F0B4B0C4A1B68503313604FF0AA
:10521000FF320A4B1A600122094B1A60094B1C60CD
:10522000FFF768FC084B1B6808B010BD606C0108F4
:10523000994F01088420002030000020641F0020C6
:10524000781F0020801F0020E0F50108024A136843
:1052500001331360704700BF601F00202DE9F84F35
:105260004E4B1B68002B40F092804D4B1C68013464
:105270001C60BCB94B4B1A68126842B14FF0500326
:1052800083F31188BFF36F8FBFF34F8FFEE7464A5A
:105290001968106818601160444A1368013313607C
:1052A000FFF746FEDFF808C10020DCF80030414A75
:1052B0009C42DFF804910FD21421D9F80030DB6A48
:1052C0004B43D358022B3D4B28BF01201B68002BBA
:1052D00018BF0120BDE8F88FDFF8C880DFF8E0E0F4
:1052E000D8F800301B6823B94FF0FF33CCF80030FA
:1052F000E2E7D8F80030DB68DB6859688C4202D2FC
:10530000CCF80010D8E75D69D3E902168E607160B1
:1053100069681F1DB9424FF0000108BF6E605961F6
:105320002968013929609D6A7DB1D3E907168E602D
:105330007160696803F1180A51454FF0000108BF18
:105340006E6099622968013929600125D96ADEF801
:1053500000608D403543CEF8005014254D4302EBDC
:10536000050ADAF80460D6F808B09E60C3F80CB0FD
:10537000CBF80470B760C3F814A0535901335351EC
:10538000D9F80030DB6A994288BF0120A8E70D4AAE
:1053900000201368013313609CE700BF601F0020EA
:1053A000801F0020CC1F0020C81F00206C1F002081
:1053B000641F0020F81F002084200020701F0020A0
:1053C0007C1F0020741F00202DE9F84F454C2368F6
:1053D00043B94FF0500383F31188BFF36F8FBFF3CE
:1053E0004F8FFEE7FFF706FB2368013B236023682E
:1053F0002BB10024FFF71EFB2046BDE8F88F3A4A88
:105400001268002AF5D04FF0010C4FF0140E374E01
:10541000374F384ADFF8E080DFF8E0903FE0F3688C
:10542000DB68986AD3E907148C606160416803F116
:105430001805A9424FF0000108BF44609962016855
:10544000013901605869D3E902148C6061604168D8
:105450001D1DA942016808BF446001390160D96A75
:105460003C680CFA01F0204338600EFB01F002EBBF
:10547000000ADAF80440D4F808B09C60C3F80CB015
:10548000CBF80450A5601458C3F814A0013414508C
:10549000D8F80000C06A814201D3C9F800C0316861
:1054A0000029BCD10BB1FFF743FD154D2C6844B169
:1054B0000127124EFFF7D2FE00B13760013CF9D14F
:1054C0002C600E4B1B68002B93D04FF0E0234FF065
:1054D0008052C3F8042DBFF34F8FBFF36F8F0124A9
:1054E00088E700BF601F0020841F0020B41F002039
:1054F0007C1F0020F81F002084200020701F002047
:10550000741F002008B550B94FF0E0234FF08052CF
:10551000C3F8042DBFF34F8FBFF36F8F08BD0A4B45
:10552000196841B14FF0500383F31188BFF36F8FB7
:10553000BFF34F8FFEE7FFF789FEFFF7A9FCFFF7E8
:1055400043FF0028E0D0E9E7601F00201A4B10B5A8
:105550001A681A4B12B101221A6010BD1A60184B5A
:105560001A68B2FA82F21423D2B2C2F11F02534374
:105570001449CC58C81844B94FF0500383F311882C
:10558000BFF36F8FBFF34F8FFEE744680833646843
:105590000B449C4208BF6368446008BF4360142307
:1055A00003FB02114B68DA68074B1A601B68074A55
:1055B00050331360D1E700BF601F0020701F002030
:1055C0007C1F0020F81F00208420002030000020D5
:1055D00038B5104B04461D682B6BB3B9182000F08A
:1055E000E1FA0246286320B946210B4B0B4800F034
:1055F00073FA0B490B4BC0E900130B4B002183607E
:105600000B2383810120C2E9040100222B6B1C6162
:105610005A6138BD30000020656C01087C6C0108BF
:105620000E33CDAB34126DE6ECDE0500164B10B533
:105630001C68236BB3B9182000F0B4FA024620634B
:1056400020B95221114B124800F046FA1149124B71
:10565000C0E90013114B002183600B2383810120DB
:10566000C2E90401216B0E480B694C6958430D4A8D
:1056700002FB0400A3FB0232013340EB0200C1E94C
:10568000043020F0004010BD30000020656C01089F
:105690007C6C01080E33CDAB34126DE6ECDE0500F8
:1056A0002DF451582D7F954C002310B50446C0E9C8
:1056B0000033C0E90433836081814366C281836122
:1056C000194608225C3000F016F90D4B2462636223
:1056D0000C4BA3620C4BE3620C4B23630C4B9C42C0
:1056E00006D003F16802944202D0D0339C4205D127
:1056F00004F15800BDE8104000F0D4B910BD00BF5F
:105700007158010893580108CB580108EF58010857
:1057100088200020024A0349034800F069B800BF0E
:1057200024000020E16301083400002041680C4B94
:1057300010B59942044601D000F052FEA168094B11
:10574000994202D0204600F04BFEE168064B994298
:1057500004D02046BDE8104000F042BE10BD00BF9E
:1057600088200020F02000205821002010B50B4B8D
:105770000B4C0C4A20461A6004210022FFF794FFCC
:1057800004F1680001220921FFF78EFF04F1D00027
:105790000222BDE810401221FFF786BFC021002081
:1057A0008820002015570108014800F07CB900BF8F
:1057B000C9210020014800F077B900BFC9210020AD
:1057C00010B50446FFF7F0FF236A1BB1BDE8104097
:1057D000FFF7F0BF044B2362044B1B68002BF5D18D
:1057E000FFF7C4FFF2E700BF2D570108C0210020DA
:1057F0002DE9F8430746884614460026D4E901956A
:10580000B9F1010905D52468002CF7D13046BDE86F
:10581000F883AB89012B07D9B5F90E30013303D0DA
:1058200029463846C04706436835E9E70EB46FF0AD
:10583000004110B500249DB01FAB02900690079167
:1058400004910948094953F8042B0591006802A9FD
:1058500001931B9400F0B8FA029B1C701DB0BDE8C8
:10586000104003B0704700BF300000200802FFFF67
:1058700010B50C46B1F90E1000F0C6F80028ABBF09
:10588000636DA3891B1823F48053ACBF6365A381A8
:1058900010BD2DE9F0411F468B890546DB050C46FE
:1058A000164605D502230022B1F90E1000F09AF831
:1058B000A389324623F48053A38128463B46B4F99A
:1058C0000E10BDE8F04100F0B1B810B50C46B1F9CA
:1058D0000E1000F087F8431CA38915BF606523F400
:1058E000805343F48053A38118BFA38110BDB1F945
:1058F0000E1000F009B803460244934200D17047ED
:1059000003F8011BF9E7000038B50023054D0446F4
:1059100008462B60FCF7F2FE431C02D12B6803B152
:10592000236038BDC42100202D4B70B51B68044690
:10593000834253D0C3691BB3DB6863B10025E369BD
:10594000DB685959B1B90435802DF8D1E369204697
:10595000D96800F0DFF8E369196811B1204600F05A
:10596000D9F8E3699D685DB1294620462D6800F0AD
:10597000D1F8F8E70E68204600F0CCF83146E1E7B0
:10598000616911B1204600F0C5F8E16911B1204606
:1059900000F0C0F8216B11B1204600F0BBF8616B3C
:1059A00011B1204600F0B6F8A16B11B1204600F00D
:1059B000B1F8A16C11B1204600F0ACF8616C11B1E6
:1059C000204600F0A7F8E16A11B1204600F0A2F8E5
:1059D000236A1BB12046BDE87040184770BD00BF68
:1059E0003000002038B50446084611460022054D17
:1059F0002A601A46FCF78CFE431C02D12B6803B1C7
:105A0000236038BDC421002038B50446084611463D
:105A10000022054D2A601A46FCF754FE431C02D1B1
:105A20002B6803B1236038BDC421002038B504467B
:105A3000084611460022054D2A601A46FCF750FE22
:105A4000431C02D12B6803B1236038BDC421002060
:105A5000014B1868704700BF3000002070B5002669
:105A60000C4D0D4C641BA410A64209D101F002F8A4
:105A700000260A4D0A4C641BA410A64205D170BD35
:105A800055F8043B98470136EEE755F8043B984734
:105A90000136F2E7E4F50108E4F50108E4F5010850
:105AA000E8F50108704770477047034611F8012B6D
:105AB00003F8012B002AF9D170470A44914200F102
:105AC000FF3300D1704710B511F8014B914203F834
:105AD000014FF9D110BD00001FB514461A46094BFD
